:100000000C9456000C948A000C948A000C948A007C
:100010000C948A000C948A000C948A000C948A0038
:100020000C948A000C94C50C0C946E0B0C94940CDC
:100030000C94010C0C94320C0C943D0B0C94D00BD2
:100040000C940B080C948A000C9499020C942803CD
:100050000C948A000C948A000C948A000C948A00F8
:100060000C94630C0C94890D0C94F60C0C94270DD5
:100070000C94580D0C949F0B0C946A020C94E102A2
:100080000C948A000C948A000C948A0000000100F1
:1000900008004000000100040000010008002000EA
:1000A00040008000000100045004770411241FBEAA
:1000B000CFEFD0E1DEBFCDBF88E483BF84E00E94F4
:1000C000790912BE87B7816087BF789411E0A0E0FC
:1000D000B1E0EAEFF4E200E00BBF02C007900D923E
:1000E000A639B107D9F712E0A6E9B1E001C01D9227
:1000F000AE38B107E1F710E0CCEAD0E004C02297B7
:10010000FE010E946212C83AD107C9F70E94BA0DD7
:100110000C947B120C94000085E060E070E00E947B
:10012000860A84E060E070E00E94860A81E060E078
:1001300070E00E94860A80E060E070E00E94860A1B
:1001400008950F931F93CF93DF93EB018A01CC0F98
:10015000DD1F57FD0CC0FE01ED59FE4F808161E0AF
:100160000E94EF08C559DE4F8881B8010EC0FE011C
:10017000ED59FE4F808160E00E94EF08C559DE4FC7
:1001800066277727601B710B88810E94860ADF91A2
:10019000CF911F910F9108951F93CF93DF93C0E0EC
:1001A000D0E0FE01ED59FE4F1081812F61E00E94E9
:1001B000A608812F61E00E94EF08FE01E559FE4F7D
:1001C000808160E070E00E94860A2296C830D105E6
:1001D00041F7DF91CF911F910895FC0110828AE0D1
:1001E00090E0938382830895CF93DF93EC018A811B
:1001F00060E00E94EF088D8160E00E941F098D8100
:1002000060E00E9441098B8161E00E94EF088C81CF
:1002100061E00E94EF080000000010C08C8160E0E7
:100220000E94EF0800000000000000008C8161E0E7
:100230000E94EF0800000000000000008D810E9475
:10024000360987FDEBCF8C8160E00E94EF08DF91DB
:10025000CF910895FF920F931F938C01F62E0E9469
:10026000F400F801828161E00E94EF08F8018381C7
:1002700060E00E94EF08F801848161E00E94EF08CD
:10028000F801858161E00E941F09F80185816F2DC9
:100290000E9441090000000000000000F801848174
:1002A00060E00E94EF08F801858160E00E941F096C
:1002B000F80185816FEF0E9441091F910F91FF9016
:1002C0000895EF92FF920F931F93CF93DF937C01DA
:1002D000042F6115710551F0EB0110E005C0C70155
:1002E00069910E942A011F5F1017C8F3DF91CF9117
:1002F0001F910F91FF90EF900895DF93CF930F928E
:10030000CDB7DEB76983BE016F5F7F4F41E00E94CA
:1003100061010F90CF91DF910895FF920F931F938A
:100320008C01F62E0E94F400F801828160E00E94A8
:10033000EF08F801838160E00E94EF08F8018481F2
:1003400061E00E94EF08F801858161E00E941F09C9
:10035000F80185816F2D0E94410900000000000016
:100360000000F801848160E00E94EF08F8018581B7
:1003700060E00E941F09F80185816FEF0E9441092A
:100380001F910F91FF900895423031F0433031F0CA
:10039000413029F4605C03C06C5E01C06C5A606837
:1003A0000E948D01089562E00E948D01089561E030
:1003B0000E948D0108950F931F938C01FC0182818F
:1003C00060E00E94EF08F801838160E00E94EF087E
:1003D000F801848160E00E94EF08F801828161E009
:1003E0000E94A608F801838161E00E94A608F80136
:1003F000848161E00E94A608F801858160E00E9486
:100400001F09F80185816FEF0E9441091F910F912B
:1004100008950F931F938C010E94DB01C80168E3CC
:100420000E948D01C80161E00E948D01C80166E053
:100430000E948D01C8016CE00E948D01C80162E03C
:100440000E948D01C80160E80E948D011F910F91EB
:1004500008950F93FC0187E791E091838083628385
:10046000438324830583CF010E9409020F910895DD
:10047000CB01642F0E946E120895CB010E94661278
:100480000895FC0124813581C9010895DC01FC0136
:1004900082819381809714F080E00895FD0182812C
:1004A000938101969383828384819581E80FF91F5C
:1004B00060870196FD01958384832D913C9111976E
:1004C0008217930714F481E00895FD0115821482C8
:1004D00081E008951F920F920FB60F920BB60F9204
:1004E00011242F933F934F935F936F937F938F9339
:1004F0009F93AF93BF93EF93FF93E0912D02F09101
:100500002E02608185EE91E00E944602FF91EF91FC
:10051000BF91AF919F918F917F916F915F914F911B
:100520003F912F910F900BBE0F900FBE0F901F9019
:1005300018951F920F920FB60F920BB60F921124BF
:100540002F933F934F935F936F937F938F939F93DB
:10055000AF93BF93EF93FF93E091E101F091E2013C
:10056000608189E991E00E944602FF91EF91BF917D
:10057000AF919F918F917F916F915F914F913F913B
:100580002F910F900BBE0F900FBE0F901F901895DC
:10059000DC01FC01828193810197938382838681B0
:1005A0009781E80FF91F40850196FD0197838683A7
:1005B0002D913C918217930714F017821682842F95
:1005C00008951F920F920FB60F920BB60F9211243F
:1005D0000F931F932F933F934F935F936F937F934B
:1005E0008F939F93AF93BF93EF93FF9380910F02ED
:1005F000909110021816190654F400912D021091D2
:100600002E028DE092E00E94C802F8018083809162
:100610000F0290911002892B31F4E0912B02F0919E
:100620002C0288E98083FF91EF91BF91AF919F9158
:100630008F917F916F915F914F913F912F911F917A
:100640000F910F900BBE0F900FBE0F901F9018953B
:100650001F920F920FB60F920BB60F9211240F93A9
:100660001F932F933F934F935F936F937F938F933A
:100670009F93AF93BF93EF93FF938091C3019091AA
:10068000C4011816190654F40091E1011091E20119
:1006900081EC91E00E94C802F80180838091C3013F
:1006A0009091C401892B31F4E091DF01F091E001D8
:1006B00088E98083FF91EF91BF91AF919F918F91D6
:1006C0007F916F915F914F913F912F911F910F916A
:1006D0000F900BBE0F900FBE0F901F901895DC016E
:1006E000FC01828193810197938382838681978124
:1006F000E80FF91F40850196FD01978386832D91B0
:100700003C918217930714F017821682842F089564
:10071000FC0184819581892B19F42FEF3FEF06C0EE
:10072000CF0102960E946F03282F30E0C90108957F
:10073000CF93DF93EC01EE81FF81E80FF91F8085F5
:10074000DF91CF910895FC0184819581892B19F463
:100750002FEF3FEF06C0CF0102960E949803282F8B
:1007600030E0C9010895FC011382128282819381D5
:100770009783868395838483089502960E94B303AA
:100780000895FC0180E290E091838083CF010E9474
:10079000B3030895DC01FC0182819381409714F03A
:1007A00080E00895FD018281938101969383828385
:1007B00084819581E80FF91F60870196FD0195837B
:1007C00084832D913C9111978217930714F481E053
:1007D0000895FD011582148281E00895CF93DF937F
:1007E000EC018CA59DA54097E4F7F894CE018A967C
:1007F0000E94CA03C85BDF4FE881F9818081806273
:1008000080837894DF91CF910895FC011382128246
:100810008281938197838683958384830895FC01E5
:1008200080E190E091838083CF010E9405040895C8
:100830006F927F928F929F92AF92BF92CF92DF92F0
:10084000EF92FF920F931F936C015B014A013901F4
:10085000FC018DE791E081939193CF010E94C10348
:10086000C6018A960E940F0482E490E0C80ED91E49
:10087000F601A192B192819291926192719201934B
:100880001193F182E0821F910F91FF90EF90DF9022
:10089000CF90BF90AF909F908F907F906F90089572
:1008A000EF92FF920F931F9387E991E060E970E068
:1008B00049E250E02BE230E00AE210E0FCE2EF2EE9
:1008C000F12C0E94180483EE91E068E970E049E998
:1008D00050E02BE930E00AE910E0ECE9EE2EF12CD3
:1008E0000E9418041F910F91FF90EF9008950F93AD
:1008F0001F938FE292E06AE14BE12CE102E00E945B
:10090000290285E392E00E94CC0087E392E00E94F6
:10091000ED008BE392E00E94ED008FE392E00E94F5
:10092000ED0006E911E0C80160E070E00E943D02C0
:1009300090E0880F991F880F991FAA2797FDA0950F
:10094000BA2FBC01CD010E94E11060934D0270935B
:100950004E0280934F0290935002C80161E070E014
:100960000E943D0290E0A0E0B0E0BC01CD010E94F9
:10097000DF10609351027093520280935302909360
:100980005402C80162E070E00E943D0290E0A0E0E5
:10099000B0E0BC01CD010E94DF106093550270935E
:1009A00056028093570290935802C80163E070E0AA
:1009B0000E943D0290E0A0E0B0E0BC01CD010E94A9
:1009C000DF106093590270935A0280935B029093F8
:1009D0005C021F910F910895AF92BF92CF92DF9268
:1009E000EF92FF920F931F9380914B0290914C02D4
:1009F000882339F0992351F010924A02109249024B
:100A000023C0992331F08FEF9FEF1AC081E090E06F
:100A100017C06091470270914802882777FD809542
:100A2000982F0E94E11020E030E040E85FEB0E9448
:100A3000421018161CF485E090E002C08BEF9FEF87
:100A400090934A0280934902E0904902F0904A0252
:100A5000B701882777FD8095982F0E94E11020919B
:100A600051023091520240915302509154020E941F
:100A700095115B016C018091470290914802E81A40
:100A8000F90A0027F7FC0095102FC801B7010E9452
:100A9000E110209155023091560240915702509139
:100AA00058020E9495119B01AC01C601B5010E943C
:100AB000DE0F7B018C0120914D0230914E0240915E
:100AC0004F02509150020E94DE0F0E94AE109B0117
:100AD000AC0185E392E061E070E0A9010E94A10011
:100AE00060914D0270914E0280914F0290915002A0
:100AF000A80197010E94DD0F0E94AE109B01AC017E
:100B000085E392E063E070E0A9010E94A10080917A
:100B1000490290914A029093480280934702809143
:100B20005D0290915E02892B09F060C08FE292E035
:100B30000E94D7018FE292E00E94D3018FE292E0FF
:100B400060E071E00E94D30D609143027091440215
:100B50008FE292E00E949B0E8FE292E063E071E0F0
:100B60000E94D30D60914502709146028FE292E09F
:100B70000E949B0E8FE292E060E041E00E94C4017F
:100B80008FE292E060E071E00E94D30DC801B701EE
:100B90000E94AE107B018C0160914D0270914E025B
:100BA00080914F02909150020E94AE109B01AC01C7
:100BB0002E193F098FE292E0B9010E949B0E8FE24D
:100BC00092E063E071E00E94D30D60914D0270915C
:100BD0004E0280914F02909150020E94AE10E60E9C
:100BE000F71E8FE292E0B7010E949B0E1F910F91BA
:100BF000FF90EF90DF90CF90BF90AF900895CF938C
:100C0000DF93EC0181E30E94D608882311F090E085
:100C10000EC0BE01882777FD8095982F0E9480081E
:100C200081E30E94D60890E0882309F491E0892F9F
:100C3000DF91CF910895CF93DF9385E392E00E94F7
:100C40008C0087E00E94550964E070E00E94171252
:100C5000EB018FE292E00E94D7018FE292E060E028
:100C600041E00E94C4018FE292E067E071E00E94DF
:100C7000D30D8FE292E0BE010E949B0E8FE292E0C4
:100C80006FE071E00E94D30D8FE292E00E94D301E9
:100C900086E00E94550960E071E00E941712613001
:100CA000710509F446C0623071051CF4672B31F000
:100CB000A2C06230710509F09EC06CC08FE292E064
:100CC00061E171E00E94D30D40914D0250914E02BE
:100CD00060914F02709150028FE292E00E94260FC5
:100CE00080E590E00E94FF05882309F4D7C0CC0F6F
:100CF000DD1FCC0FDD1FBE01882777FD8095982F63
:100D00000E94E11060934D0270934E0280934F0257
:100D10009093500220E030E040E85EE30E9495119D
:100D20000E94B3109B01AC0186E991E060E070E0A5
:100D3000B2C08FE292E069E171E00E94D30D409170
:100D400051025091520260915302709154028FE20D
:100D500092E00E94260F80E590E00E94FF05882324
:100D600009F49CC0BE01882777FD8095982F0E94CA
:100D7000E11060935102709352028093530290935A
:100D800054020E94B3109B01AC0186E991E061E03E
:100D900070E081C08FE292E062E271E00E94D30DC8
:100DA000409155025091560260915702709158023D
:100DB0008FE292E00E94260F80E590E00E94FF05FE
:100DC000882309F46BC0BE01882777FD8095982F92
:100DD0000E94E1106093550270935602809357026F
:100DE000909358020E94B3109B01AC0186E991E0F8
:100DF00062E070E050C08FE292E06BE271E00E942E
:100E0000D30D6091590270915A0280915B029091CA
:100E10005C020E94AE109B01AC018FE292E0B9012E
:100E20000E949B0E8FE292E060E371E00E94D30D7E
:100E300060914302709144028FE292E00E949B0E07
:100E40008FE292E060E371E00E94D30D6091450271
:100E5000709146028FE292E00E949B0E80E590E046
:100E60000E94FF058823D1F0BE01882777FD809579
:100E7000982F0E94E1106093590270935A02809358
:100E80005B0290935C020E94B3109B01AC0186E967
:100E900091E063E070E0422F0E9438026EE170E062
:100EA00080E090E00E948008DF91CF910895CF9379
:100EB000DF93EC0182E30E94D608882311F090E0D2
:100EC0000EC0BE01882777FD8095982F0E9480086C
:100ED00082E30E94D60890E0882309F491E0892FEC
:100EE000DF91CF910895DF92EF92FF920F931F93BE
:100EF000CF93DF9380E00E94550990934402809342
:100F0000430281E00E945509EC01909346028093D0
:100F10004502E0905902F0905A0200915B02109154
:100F20005C02DD246091430270914402882777FDC2
:100F30008095982F0E94E110A80197010E949111BD
:100F4000181614F4DD24D394D0924B0210924C0264
:100F5000BE01882777FD8095982F0E94E110A80197
:100F600097010E94911118161CF481E080934C02A5
:100F700011E0D12687E06D2D0E94EF0860914C02B0
:100F8000612785E00E94EF0880914B02882311F0D1
:100F900061E002C060914C0286E00E94EF0880E5AB
:100FA00090E00E94FF05882319F081E080933401CE
:100FB00080E590E00E945707882311F010923401D9
:100FC00080915D0290915E02181619062CF08091B6
:100FD00035019091360101C0019790935E02809394
:100FE0005D02DF91CF911F910F91FF90EF90DF9005
:100FF00008950E94730780913401882319F00E949C
:101000001B0608950E94EC0408958FE16AE070E0E9
:101010000E94D80F08951F920F920FB60F921124BD
:101020002F933F938F939F93AF93BF9380916302CE
:1010300090916402A0916502B091660230916702BE
:101040000196A11DB11D232F2D5F2D3720F02D57A7
:101050000196A11DB11D20936702809363029093B6
:101060006402A0936502B093660280915F02909142
:101070006002A0916102B09162020196A11DB11DB2
:1010800080935F0290936002A0936102B09362022A
:10109000BF91AF919F918F913F912F910F900FBE74
:1010A0000F901F9018956FB7F89420915F023091C0
:1010B0006002409161025091620282B790E0A0E02C
:1010C000B0E006B600FE09C08F3F9105A105B1054D
:1010D00021F02F5F3F4F4F4F5F4F6FBF542F432F74
:1010E000322F2227280F391F4A1F5B1F82E0220F51
:1010F000331F441F551F8A95D1F7B901CA010895BE
:10110000EF92FF920F931F93CF93DF937B018C019C
:101110000E945308EB010EC00E9453086C1B7D0B0C
:10112000685E7340C8F30894E108F10801091109E9
:10113000C851DC4FE114F1040105110569F7DF9195
:10114000CF911F910F91FF90EF900895E82FE695B2
:10115000E695E695A82FB0E0613099F42FB7F894A2
:10116000F0E0EE0FFF1FEB5BFE4F0190F081E02DF2
:101170009081A770B070A957BE4F8C91982B908327
:1011800013C02FB7F894F0E0EE0FFF1FEB5BFE4F9C
:101190000190F081E02D9081A770B070A957BE4FEB
:1011A0008C918095892380832FBF0895A82FE82FE5
:1011B000E695E695E695F0E0EE0FFF1FED5AFE4F3F
:1011C0000190F081E02DE081B0E0A770B070A957E8
:1011D000BE4F8C91E82309F0E1E08E2F0895E82FAF
:1011E000E695E695E695A82FB0E0613099F42FB723
:1011F000F894F0E0EE0FFF1FE95CFE4F0190F081E4
:10120000E02D9081A770B070A957BE4F8C91982B9C
:10121000908313C02FB7F894F0E0EE0FFF1FE95C46
:10122000FE4F0190F081E02D9081A770B070A9571A
:10123000BE4F8C918095892380832FBF0895E82F1E
:10124000F0E0613051F4EE0FFF1FEB5BFE4F0190B9
:10125000F081E02D8FEF80830895EE0FFF1FEB5B91
:10126000FE4F0190F081E02D10820895E82FF0E00C
:10127000EE0FFF1FED5AFE4F0190F081E02D8081AF
:101280000895E82FF0E0EE0FFF1FE95CFE4F01909C
:10129000F081E02D60830895109261001092620049
:1012A00080E487B987EE86B908951F93182F80913F
:1012B0006101813021F40E944C09109261018091FA
:1012C0006201181721F4349A349BFECF0DC010939D
:1012D000620187B11770807E812B87B9349A349B65
:1012E000FECF349A349BFECF24B135B1C9011F9192
:1012F000089593B7987F982B93BF08959EB5987FD4
:10130000982B9EBD089583E00E947E091DBC1CBCE5
:1013100087B7846087BF0895EAE8F0E09081987FFE
:10132000982B9083089583E00E948C091092890085
:1013300010928800EDE7F0E080818460808308955A
:10134000803140F4E82FF0E0EE0FFF1FE759FD4F2A
:101350007183608308958EB5E82FF0E0E770F07038
:10136000EE0FFF1FE457FF4F25913491C9010895F7
:10137000893031F48FB582608FBD8FB58E7F0AC002
:101380008A3019F48FB5826002C08FB58D7F8FBD12
:101390008FB581608FBD1BBC1ABC19BC18BC1092E4
:1013A00079001092780008958FB580688FBD8FB551
:1013B0008F7B8FBD08958FB580628FBD8FB58F7E77
:1013C0008FBD08958FB588608FBD8FB58B7F8FBD22
:1013D00008958FB58F778FBD8FB58F7B8FBD0895A3
:1013E0008FB58F7D8FBD8FB58F7E8FBD08958FB5E3
:1013F000877F8FBD8FB58B7F8FBD08958FB58D7F14
:101400008FBD8FB58E7F8FBD0E94E9090E94F009C4
:101410000E94F70908959BBD8ABD089599BD88BDB6
:10142000089590937900809378000895893049F465
:1014300080918B00826080938B0080918B008E7FE7
:101440000EC08A3021F480918B00826003C08091AD
:101450008B008D7F80938B0080918B0081608093C7
:101460008B001092870010928600109285001092D7
:10147000840010928300109282000895EBE8F0E05F
:1014800080818068808380818F7B80830895EBE8F2
:10149000F0E080818062808380818F7E80830895E8
:1014A000EBE8F0E080818860808380818B7F80839F
:1014B0000895853019F40E94D4090895843019F4F0
:1014C0000E94DB090895833019F40E94E20908950F
:1014D000823019F40E943E0A0895813019F40E9466
:1014E000470A0895882311F40E94500A08959093A2
:1014F00087008093860008959093850080938400F0
:10150000089590938300809382000895EF92FF9254
:101510001F93CF93DF93182F7B018D31B0F08F3164
:1015200011F413E014C08E3111F414E010C08D31A9
:1015300009F49BC0853211F410E03DC0843211F4EF
:1015400011E039C0833219F48EC08330A0F180914C
:10155000680286FD0BC00E94830978948AE00E948D
:10156000B809809168028064809368028091680263
:10157000C12FD0E090E0012E02C0959587950A9486
:10158000E2F780FD4CC087B3FE01E157FE4F90812A
:10159000892B87BB812F0E94590A2091680281E024
:1015A00090E0012E02C0880F991F0A94E2F7282BC1
:1015B0002093680234C08091680287FD0BC00E94AE
:1015C000930978948AE00E94160A809168028068E4
:1015D0008093680280916802C12FD0E090E0012ED4
:1015E00002C0959587950A94E2F780FD24C082B1E8
:1015F000FE01E157FE4F9081892B82B9812F0E9415
:10160000590A2091680281E090E0012E02C0880F03
:10161000991F0A94E2F7282B209368020CC015301A
:1016200021F4C7010E940B0A22C0143021F4C70123
:101630000E940E0A1CC0133021F4C7010E94110A37
:1016400016C0123021F4C7010E94770A10C0113071
:1016500021F4C7010E947C0A0AC0112341F4C7018A
:101660000E94810A04C012E0A6CF15E070CFDF917E
:10167000CF911F91FF90EF9008951F920F920FB698
:101680000F920BB60F9211242F933F934F935F93BA
:101690006F937F938F939F93AF93BF93EF93FF933A
:1016A00080916F0290917002892B29F0E0916F0276
:1016B000F09170020995FF91EF91BF91AF919F91C9
:1016C0008F917F916F915F914F913F912F910F90EB
:1016D0000BBE0F900FBE0F901F9018951F920F9288
:1016E0000FB60F920BB60F9211242F933F934F9387
:1016F0005F936F937F938F939F93AF93BF93EF937A
:10170000FF938091790290917A02892B29F0E091E0
:101710007902F0917A020995FF91EF91BF91AF9113
:101720009F918F917F916F915F914F913F912F91F9
:101730000F900BBE0F900FBE0F901F9018951F9229
:101740000F920FB60F920BB60F9211242F933F9367
:101750004F935F936F937F938F939F93AF93BF93B9
:10176000EF93FF9380917F0290918002892B29F063
:10177000E0917F02F09180020995FF91EF91BF9176
:10178000AF919F918F917F916F915F914F913F9119
:101790002F910F900BBE0F900FBE0F901F901895BA
:1017A0001F920F920FB60F920BB60F9211242F9328
:1017B0003F934F935F936F937F938F939F93AF93D9
:1017C000BF93EF93FF9380916B0290916C02892BF2
:1017D00029F0E0916B02F0916C020995FF91EF9175
:1017E000BF91AF919F918F917F916F915F914F9139
:1017F0003F912F910F900BBE0F900FBE0F901F9037
:1018000018951F920F920FB60F920BB60F921124DC
:101810002F933F934F935F936F937F938F939F93F8
:10182000AF93BF93EF93FF938091710290917202F7
:10183000892B29F0E0917102F09172020995FF91D4
:10184000EF91BF91AF919F918F917F916F915F9138
:101850004F913F912F910F900BBE0F900FBE0F90A5
:101860001F9018951F920F920FB60F920BB60F9202
:1018700011242F933F934F935F936F937F938F9395
:101880009F93AF93BF93EF93FF93809173029091D7
:101890007402892B29F0E0917302F091740209958A
:1018A000FF91EF91BF91AF919F918F917F916F9138
:1018B0005F914F913F912F910F900BBE0F900FBEF4
:1018C0000F901F9018951F920F920FB60F920BB6A4
:1018D0000F9211242F933F934F935F936F937F93B6
:1018E0008F939F93AF93BF93EF93FF938091750274
:1018F00090917602892B29F0E0917502F0917602A1
:101900000995FF91EF91BF91AF919F918F917F9139
:101910006F915F914F913F912F910F900BBE0F9060
:101920000FBE0F901F9018951F920F920FB60F9237
:101930000BB60F9211242F933F934F935F936F93A6
:101940007F938F939F93AF93BF93EF93FF93809178
:10195000770290917802892B29F0E0917702F0913B
:1019600078020995FF91EF91BF91AF919F918F916F
:101970007F916F915F914F913F912F910F900BBE8F
:101980000F900FBE0F901F9018951F920F920FB6D9
:101990000F920BB60F9211242F933F934F935F93A7
:1019A0006F937F938F939F93AF93BF93EF93FF9327
:1019B00080917B0290917C02892B29F0E0917B023F
:1019C000F0917C020995FF91EF91BF91AF919F91AA
:1019D0008F917F916F915F914F913F912F910F90D8
:1019E0000BBE0F900FBE0F901F9018951F920F9275
:1019F0000FB60F920BB60F9211242F933F934F9374
:101A00005F936F937F938F939F93AF93BF93EF9366
:101A1000FF938091810290918202892B29F0E091BD
:101A20008102F09182020995FF91EF91BF91AF91F0
:101A30009F918F917F916F915F914F913F912F91E6
:101A40000F900BBE0F900FBE0F901F9018951F9216
:101A50000F920FB60F920BB60F9211242F933F9354
:101A60004F935F936F937F938F939F93AF93BF93A6
:101A7000EF93FF938091830290918402892B29F048
:101A8000E0918302F09184020995FF91EF91BF915B
:101A9000AF919F918F917F916F915F914F913F9106
:101AA0002F910F900BBE0F900FBE0F901F901895A7
:101AB0001F920F920FB60F920BB60F9211242F9315
:101AC0003F934F935F936F937F938F939F93AF93C6
:101AD000BF93EF93FF938091850290918602892BAB
:101AE00029F0E0918502F09186020995FF91EF912E
:101AF000BF91AF919F918F917F916F915F914F9126
:101B00003F912F910F900BBE0F900FBE0F901F9023
:101B100018951F920F920FB60F920BB60F921124C9
:101B20002F933F934F935F936F937F938F939F93E5
:101B3000AF93BF93EF93FF938091870290918802B8
:101B4000892B29F0E0918702F09188020995FF9195
:101B5000EF91BF91AF919F918F917F916F915F9125
:101B60004F913F912F910F900BBE0F900FBE0F9092
:101B70001F90189583E061E00E941F0984E061E0F6
:101B80000E941F0978940E9405080E94F907FDCF62
:101B9000DC01ED91FC910190F081E02D0995089513
:101BA0000E94C80D08950F931F93CF93DF938C016C
:101BB000EB0104C02196C8010E94D00D6881662304
:101BC000C9F7DF91CF911F910F9108952F923F9206
:101BD0004F925F926F927F928F929F92AF92BF923D
:101BE000CF92DF92EF92FF920F931F93DF93CF93E9
:101BF000CDB7DEB7A0970FB6F894DEBF0FBECDBF4E
:101C00001C016A017B01411551056105710521F433
:101C100060E30E94D00D4FC0882499245401422EC5
:101C200055246624772401E010E00C0F1D1F080DD9
:101C3000191DC701B601A30192010E942A12F801E1
:101C400060830894811C911CA11CB11CC701B601C2
:101C5000A30192010E942A12C901DA016C017D01DF
:101C6000C114D104E104F104F1F681E0E82EF12C75
:101C7000EC0EFD1EE80CF91C3E010894611C711C61
:101C8000D501C4010197A109B1096C01C818D9088F
:101C90000FC0F601EE0DFF1D60816A3010F4605D2B
:101CA00001C0695CC1010E94D00D0894E108F108EF
:101CB0006E147F0471F7A0960FB6F894DEBF0FBEC6
:101CC000CDBFCF91DF911F910F91FF90EF90DF90EB
:101CD000CF90BF90AF909F908F907F906F905F90CC
:101CE0004F903F902F9008952AE00E94E60D0895AE
:101CF000EF92FF920F931F93CF93DF93EC017A0142
:101D00008B0177FF0BC06DE20E94D00D10950095FE
:101D1000F094E094E11CF11C011D111DCE01B801ED
:101D2000A7012AE00E94E60DDF91CF911F910F914C
:101D3000FF90EF900895AB01662757FD6095762FD1
:101D40000E94780E08959F92AF92BF92CF92DF9239
:101D5000EF92FF920F931F93CF93DF93EC017A01E1
:101D60008B01922ECB01BA0120E030E040E050E040
:101D70000E944210882344F4CE016DE20E94D00DEF
:101D800017FB109517F9109520E030E040E05FE375
:101D9000AA240BC0CA01B90120E030E040E251E4BE
:101DA0000E9446109B01AC01A394A91498F3C801AA
:101DB000B7010E94DE0F5B016C010E94B3107B0132
:101DC0008C01CE01B801A7010E94740E992029F060
:101DD000CE0162E371E00E94D30DC801B7010E94F9
:101DE000DF109B01AC01C601B5010E94DD0F20C0D0
:101DF00020E030E040E251E40E9495115B016C016B
:101E00000E94AE109B01AC017B01CE01B9010E9482
:101E10009B0E0027F7FC0095102FC801B7010E9408
:101E2000E1109B01AC01C601B5010E94DD0F9A943F
:101E30009920F1F6DF91CF911F910F91FF90EF90D4
:101E4000DF90CF90BF90AF909F90089522E00E94C6
:101E5000A30E08959C01009751F081E080938B02BE
:101E6000220F331F30938A022093890208C01092F8
:101E70008B0282E090E090938A02809389028FB572
:101E80008F778FBD8FB580648FBD80918C029091CC
:101E90008D029BBD8ABD87B7806187BF089585305D
:101EA00011F08D3119F4CB010E942A0F0895809111
:101EB000890290918A021816190674F480918B0297
:101EC000813099F48091890290918A0201979093D0
:101ED0008A028093890208958FB58F778FBD8FB561
:101EE0008F7B8FBD87B78F7E87BF0895EF92FF925C
:101EF0000F931F937C010E94AB0900E010E0EE0CF1
:101F0000FF1C001F111F9C0140E050E0C801B701F9
:101F10000E94F8119B01AC0160E074E284EF90E054
:101F20000E942A1230938D0220938C021F910F91F0
:101F3000FF90EF900895853011F08D3119F4CB01A9
:101F40000E94760F08950E9483090E94FE098EB5B3
:101F500088608EBD10928B0210928A0210928902C4
:101F600080E090E890938D0280938C0284E067E596
:101F70007FE00E94A0090895CF92DF92EF92FF9236
:101F80001F93182F7B016A010E94A30F812F61E02C
:101F90000E94A608812FB7010E949B0F812FB601D6
:101FA0000E944F0F1F91FF90EF90DF90CF90089508
:101FB00040E050E00E94BC0F08955058BB27AA276C
:101FC0000ED075C166D130F06BD120F031F49F3F57
:101FD00011F41EF45BC10EF4E095E7FB51C1E92F4B
:101FE00077D180F3BA17620773078407950718F053
:101FF00071F49EF58FC10EF4E0950B2EBA2FA02D33
:102000000B01B90190010C01CA01A0011124FF27A5
:10201000591B99F0593F50F4503E68F11A16F040A0
:10202000A22F232F342F4427585FF3CF469537959F
:102030002795A795F0405395C9F77EF41F16BA0B64
:10204000620B730B840BBAF09150A1F0FF0FBB1F12
:10205000661F771F881FC2F70EC0BA0F621F731F5B
:10206000841F48F4879577956795B795F7959E3FB8
:1020700008F0B3CF9395880F08F09927EE0F979546
:1020800087950895D9D008F481E008950CD00FC148
:1020900007D140F0FED030F021F45F3F19F0F0C0DE
:1020A000511139C1F3C014D198F39923C9F35523C1
:1020B000B1F3951B550BBB27AA276217730784073B
:1020C00038F09F5F5F4F220F331F441FAA1FA9F3F1
:1020D00033D00E2E3AF0E0E830D091505040E695E3
:1020E000001CCAF729D0FE2F27D0660F771F881F44
:1020F000BB1F261737074807AB07B0E809F0BB0B33
:10210000802DBF01FF2793585F4F2AF09E3F510556
:1021100068F0B6C000C15F3FECF3983EDCF38695F3
:1021200077956795B795F7959F5FC9F7880F911DCC
:102130009695879597F90895E1E0660F771F881FB8
:10214000BB1F621773078407BA0720F0621B730B6B
:10215000840BBA0BEE1F88F7E095089504D06894BD
:10216000B111D9C00895BCD088F09F5790F0B92F15
:102170009927B751A0F0D1F0660F771F881F991FDC
:102180001AF0BA95C9F712C0B13081F0C3D0B1E0EE
:102190000895C0C0672F782F8827B85F39F0B93FFE
:1021A000CCF3869577956795B395D9F73EF49095DE
:1021B0008095709561957F4F8F4F9F4F0895E8945C
:1021C00009C097FB3EF490958095709561957F4F7F
:1021D0008F4F9F4F9923A9F0F92F96E9BB2793952D
:1021E000F695879577956795B795F111F8CFFAF43D
:1021F000BB0F11F460FF1BC06F5F7F4F8F4F9F4F6E
:1022000016C0882311F096E911C0772321F09EE8CB
:10221000872F762F05C0662371F096E8862F70E031
:1022200060E02AF09A95660F771F881FDAF7880F0B
:102230009695879597F90895990F0008550FAA0B61
:10224000E0E8FEEF16161706E807F907C0F01216C9
:102250001306E407F50798F0621B730B840B950BCC
:1022600039F40A2661F0232B242B252B21F4089521
:102270000A2609F4A140A6958FEF811D811D0895BE
:1022800097F99F6780E870E060E008959FEF80EC29
:10229000089500240A9416161706180609060895CC
:1022A00000240A9412161306140605060895092E32
:1022B0000394000C11F4882352F0BB0F40F4BF2BA1
:1022C00011F460FF04C06F5F7F4F8F4F9F4F0895E1
:1022D00057FD9058440F551F59F05F3F71F04795D7
:1022E000880F97FB991F61F09F3F79F087950895BC
:1022F000121613061406551FF2CF4695F1DF08C0DB
:10230000161617061806991FF1CF869571056105F7
:1023100008940895E894BB2766277727CB0197F99F
:1023200008958ADF08F48FEF08950BD0C0CFB1DF96
:1023300028F0B6DF18F0952309F0A2CFA7CF11241B
:10234000EACFC6DFA0F3959FD1F3950F50E0551F5C
:10235000629FF001729FBB27F00DB11D639FAA27FA
:10236000F00DB11DAA1F649F6627B00DA11D661F49
:10237000829F2227B00DA11D621F739FB00DA11D6A
:10238000621F839FA00D611D221F749F3327A00D24
:10239000611D231F849F600D211D822F762F6A2FC0
:1023A00011249F5750408AF0E1F088234AF0EE0F45
:1023B000FF1FBB1F661F771F881F91505040A9F752
:1023C0009E3F510570F05CCFA6CF5F3FECF3983E87
:1023D000DCF3869577956795B795F795E7959F5FB9
:1023E000C1F7FE2B880F911D9695879597F9089553
:1023F000629FD001739FF001829FE00DF11D649FE9
:10240000E00DF11D929FF00D839FF00D749FF00D74
:10241000659FF00D9927729FB00DE11DF91F639F15
:10242000B00DE11DF91FBD01CF011124089597FBE7
:10243000092E07260AD077FD04D02ED006D0002022
:102440001AF4709561957F4F0895F6F790958195F0
:102450009F4F0895A1E21A2EAA1BBB1BFD010DC0C0
:10246000AA1FBB1FEE1FFF1FA217B307E407F50744
:1024700020F0A21BB30BE40BF50B661F771F881F20
:10248000991F1A9469F760957095809590959B01B6
:10249000AC01BD01CF010895AA1BBB1B51E107C0D0
:1024A000AA1FBB1FA617B70710F0A61BB70B881FE4
:1024B000991F5A95A9F780959095BC01CD01089573
:1024C000EE0FFF1F0590F491E02D0994E199FECFE6
:1024D0009FBB8EBBE09A99278DB30895262FE19973
:1024E000FECF9FBB8EBB2DBB0FB6F894E29AE19A4C
:0A24F0000FBE01960895F894FFCF87
:1024FA004C3A0020523A0053657420746F20003F12
:10250A000053706565643A200050204761696E3A4D
:10251A00200044204761696E3A200054483A20005E
:10252A0020002E0001C800320035003B003800238D
:10253A000062006500310034003A00370022006171
:10254A0000640030003300390036002100200063A7
:10255A000001FF18001900260027000500040001E9
:10256A00000000000000007D0100000000EE0341B1
:10257A0002A3038803BD030102040810204080203F
:06258A0010088040200053
:00000001FF
