:100000000C9448000C947C000C947C000C947C00B4
:100010000C947C000C947C000C947C000C947C0070
:100020000C947C000C94780C0C94210B0C94470CD1
:100030000C94B40B0C94E50B0C94F00A0C94830B09
:100040000C94F8070C947C000C948B020C941A030B
:100050000C947C000C947C000C947C000C947C0030
:100060000C94160C0C943C0D0C94A90C0C94DA0C0A
:100070000C940B0D0C94520B0C945C020C94D30258
:100080000C947C000C947C000C947C0042046A0468
:1000900011241FBECFEFD0E1DEBFCDBF88E483BF08
:1000A00084E00E94660912BE87B7816087BF78949A
:1000B00011E0A0E0B1E0ECEBF2E200E00BBF02C027
:1000C00007900D92A639B107D9F712E0A6E9B1E081
:1000D00001C01D92A938B107E1F710E0C0E9D0E0F6
:1000E00004C02297FE010E944311CC38D107C9F702
:1000F0000E946D0D0C945C110C94000085E060E092
:1001000070E00E94390A84E060E070E00E94390AE1
:1001100081E060E070E00E94390A80E060E070E019
:100120000E94390A08950F931F93CF93DF93EB0139
:100130008A01CC0FDD1F57FD0CC0FE01ED59FE4FAB
:10014000808161E00E94DC08C559DE4F8881B801DA
:100150000EC0FE01ED59FE4F808160E00E94DC0878
:10016000C559DE4F66277727601B710B88810E9477
:10017000390ADF91CF911F910F9108951F93CF936B
:10018000DF93C0E0D0E0FE01ED59FE4F1081812FDA
:1001900061E00E949308812F61E00E94DC08FE016B
:1001A000E559FE4F808160E070E00E94390A229696
:1001B000C830D10541F7DF91CF911F910895FC011F
:1001C00010828AE090E0938382830895CF93DF9337
:1001D000EC018A8160E00E94DC088D8160E00E9471
:1001E0000C098D8160E00E942E098B8161E00E94E4
:1001F000DC088C8161E00E94DC080000000010C077
:100200008C8160E00E94DC0800000000000000001B
:100210008C8161E00E94DC0800000000000000000A
:100220008D810E94230987FDEBCF8C8160E00E94C5
:10023000DC08DF91CF910895FF920F931F938C01FB
:10024000F62E0E94E600F801828161E00E94DC083F
:10025000F801838160E00E94DC08F801848161E09C
:100260000E94DC08F801858161E00E940C09F80118
:1002700085816F2D0E942E09000000000000000003
:10028000F801848160E00E94DC08F801858160E06B
:100290000E940C09F80185816FEF0E942E091F91C1
:1002A0000F91FF900895EF92FF920F931F93CF93BA
:1002B000DF937C01042F6115710551F0EB0110E013
:1002C00005C0C70169910E941C011F5F1017C8F388
:1002D000DF91CF911F910F91FF90EF900895DF93E1
:1002E000CF930F92CDB7DEB76983BE016F5F7F4FAB
:1002F00041E00E9453010F90CF91DF910895FF924A
:100300000F931F938C01F62E0E94E600F801828164
:1003100060E00E94DC08F801838160E00E94DC0854
:10032000F801848161E00E94DC08F801858161E0C8
:100330000E940C09F80185816F2D0E942E09000092
:10034000000000000000F801848160E00E94DC08E9
:10035000F801858160E00E940C09F80185816FEF4A
:100360000E942E091F910F91FF900895423031F0A5
:10037000433031F0413029F4605C03C06C5E01C051
:100380006C5A60680E947F01089562E00E947F01BC
:10039000089561E00E947F0108950F931F938C01DF
:1003A000FC01828160E00E94DC08F801838160E04A
:1003B0000E94DC08F801848160E00E94DC08F801FA
:1003C000828161E00E949308F801838161E00E94CC
:1003D0009308F801848161E00E949308F801858107
:1003E00060E00E940C09F80185816FEF0E942E09E0
:1003F0001F910F9108950F931F938C010E94CD01BF
:10040000C80168E30E947F01C80161E00E947F018A
:10041000C80166E00E947F01C8016CE00E947F0174
:10042000C80162E00E947F01C80160E80E947F016C
:100430001F910F9108950F93FC0187E791E091833D
:1004400080836283438324830583CF010E94FB0161
:100450000F910895CB01642F0E944F110895CB0195
:100460000E9447110895FC0124813581C901089536
:10047000DC01FC0182819381809714F080E0089573
:10048000FD0182819381019693838283848195818A
:10049000E80FF91F60870196FD01958384832D91F4
:1004A0003C9111978217930714F481E00895FD01A0
:1004B0001582148281E008951F920F920FB60F9259
:1004C0000BB60F9211242F933F934F935F936F932B
:1004D0007F938F939F93AF93BF93EF93FF93E0919D
:1004E0002D02F0912E02608185EE91E00E9438028B
:1004F000FF91EF91BF91AF919F918F917F916F91FC
:100500005F914F913F912F910F900BBE0F900FBEB7
:100510000F901F9018951F920F920FB60F920BB667
:100520000F9211242F933F934F935F936F937F9379
:100530008F939F93AF93BF93EF93FF93E091E1016C
:10054000F091E201608189E991E00E943802FF9117
:10055000EF91BF91AF919F918F917F916F915F913B
:100560004F913F912F910F900BBE0F900FBE0F90A8
:100570001F901895DC01FC01828193810197938380
:10058000828386819781E80FF91F40850196FD01DE
:10059000978386832D913C918217930714F01782DD
:1005A0001682842F08951F920F920FB60F920BB6EA
:1005B0000F9211240F931F932F933F934F935F93A9
:1005C0006F937F938F939F93AF93BF93EF93FF931B
:1005D00080910F02909110021816190654F40091A0
:1005E0002D0210912E028DE092E00E94BA02F801D5
:1005F000808380910F0290911002892B31F4E09159
:100600002B02F0912C0288E98083FF91EF91BF913A
:10061000AF919F918F917F916F915F914F913F919A
:100620002F911F910F910F900BBE0F900FBE0F9047
:100630001F9018951F920F920FB60F920BB60F9244
:1006400011240F931F932F933F934F935F936F93B7
:100650007F938F939F93AF93BF93EF93FF9380917B
:10066000C3019091C4011816190654F40091E101D8
:100670001091E20181EC91E00E94BA02F8018083BE
:100680008091C3019091C401892B31F4E091DF0185
:10069000F091E00188E98083FF91EF91BF91AF91E4
:1006A0009F918F917F916F915F914F913F912F918A
:1006B0001F910F910F900BBE0F900FBE0F901F90C8
:1006C0001895DC01FC0182819381019793838283D9
:1006D00086819781E80FF91F40850196FD01978378
:1006E00086832D913C918217930714F0178216820E
:1006F000842F0895FC0184819581892B19F42FEFB3
:100700003FEF06C0CF0102960E946103282F30E020
:10071000C9010895CF93DF93EC01EE81FF81E80FCB
:10072000F91F8085DF91CF910895FC018481958127
:10073000892B19F42FEF3FEF06C0CF0102960E94DC
:100740008A03282F30E0C9010895FC011382128228
:10075000828193819783868395838483089502960B
:100760000E94A5030895FC0180E290E091838083BC
:10077000CF010E94A5030895DC01FC0182819381D1
:10078000409714F080E00895FD01828193810196E5
:100790009383828384819581E80FF91F6087019696
:1007A000FD01958384832D913C91119782179307C6
:1007B00014F481E00895FD011582148281E008950A
:1007C000CF93DF93EC018CA59DA54097E4F7F894B7
:1007D000CE018A960E94BC03C85BDF4FE881F98195
:1007E0008081806280837894DF91CF910895FC01AD
:1007F0001382128282819381978386839583848377
:100800000895FC0180E190E091838083CF010E94F4
:10081000F70308956F927F928F929F92AF92BF924B
:10082000CF92DF92EF92FF920F931F936C015B01C7
:100830004A013901FC018DE791E081939193CF0149
:100840000E94B303C6018A960E94010482E490E0EC
:10085000C80ED91EF601A192B19281929192619235
:10086000719201931193F182E0821F910F91FF9099
:10087000EF90DF90CF90BF90AF909F908F907F9040
:100880006F900895EF92FF920F931F9387E991E085
:1008900060E970E049E250E02BE230E00AE210E06B
:1008A000FCE2EF2EF12C0E940A0483EE91E068E94D
:1008B00070E049E950E02BE930E00AE910E0ECE9AA
:1008C000EE2EF12C0E940A041F910F91FF90EF90E1
:1008D000089508950F931F938FE292E06AE14BE130
:1008E0002CE102E00E941B0285E392E00E94BE0020
:1008F00087E392E00E94DF008BE392E00E94DF003A
:100900008FE392E00E94DF0006E911E0C80160E099
:1009100070E00E942F0290E0880F991F880F991FA6
:10092000AA2797FDA095BA2FBC01CD010E94E10F27
:1009300060934D0270934E0280934F029093500249
:10094000C80161E070E00E942F0290E0A0E0B0E0FA
:10095000BC01CD010E94DF0F6093510270935202DF
:100960008093530290935402C80162E070E00E94A9
:100970002F0290E0A0E0B0E0BC01CD010E94DF0FAB
:1009800060935502709356028093570290935802D9
:10099000C80163E070E00E942F0290E0A0E0B0E0A8
:1009A000BC01CD010E94DF0F6093590270935A027F
:1009B00080935B0290935C021F910F910895AF9218
:1009C000BF92CF92DF92EF92FF920F931F9380918D
:1009D0004B0290914C02882339F0992351F01092E8
:1009E0004A021092490223C0992331F08FEF9FEF02
:1009F0001AC081E090E017C06091470270914802F0
:100A0000882777FD8095982F0E94E10F20E030E045
:100A100040E85FEB0E94420F18161CF485E090E05E
:100A200002C08BEF9FEF90934A0280934902E090BF
:100A30004902F0904A02B701882777FD8095982FE8
:100A40000E94E10F209151023091520240915302D5
:100A5000509154020E9495105B016C0180914702F5
:100A600090914802E81AF90A0027F7FC0095102F28
:100A7000C801B7010E94E10F209155023091560242
:100A800040915702509158020E9495109B01AC0171
:100A9000C601B5010E94DE0E7B018C0120914D0242
:100AA00030914E0240914F02509150020E94DE0E52
:100AB0000E94AE0F9B01AC0185E392E061E070E023
:100AC000A9010E94930060914D0270914E028091A5
:100AD0004F0290915002A80197010E94DD0E0E94E2
:100AE000AE0F9B01AC0185E392E063E070E0A901E9
:100AF0000E9493008091490290914A02909348028B
:100B00008093470280915D0290915E02892B09F0EB
:100B100060C08FE292E00E94C9018FE292E00E94E1
:100B2000C5018FE292E060E071E00E94860D609165
:100B30004302709144028FE292E00E944E0E8FE2D7
:100B400092E063E071E00E94860D60914502709131
:100B500046028FE292E00E944E0E8FE292E060E049
:100B600041E00E94B6018FE292E060E071E00E94F5
:100B7000860DC801B7010E94AE0F7B018C01609108
:100B80004D0270914E0280914F02909150020E944E
:100B9000AE0F9B01AC012E193F098FE292E0B90123
:100BA0000E944E0E8FE292E063E071E00E94860D9B
:100BB00060914D0270914E0280914F0290915002CF
:100BC0000E94AE0FE60EF71E8FE292E0B7010E9480
:100BD0004E0E1F910F91FF90EF90DF90CF90BF903E
:100BE000AF900895CF93DF93EC0181E30E94C30897
:100BF000882311F090E00EC0BE01882777FD809514
:100C0000982F0E946D0881E30E94C30890E088231A
:100C100009F491E0892FDF91CF910895CF93DF936D
:100C200085E392E00E947E0087E00E94420964E032
:100C300070E00E94F810EB018FE292E00E94C9017F
:100C40008FE292E060E041E00E94B6018FE292E024
:100C500067E071E00E94860D8FE292E0BE010E9483
:100C60004E0E8FE292E06FE071E00E94860D8FE2FF
:100C700092E00E94C50186E00E94420960E071E0B6
:100C80000E94F8106130710509F446C062307105A8
:100C90001CF4672B31F0A2C06230710509F09EC0D0
:100CA0006CC08FE292E061E171E00E94860D40919C
:100CB0004D0250914E0260914F02709150028FE2AE
:100CC00092E00E94D90E80E590E00E94F205882310
:100CD00009F4D7C0CC0FDD1FCC0FDD1FBE01882764
:100CE00077FD8095982F0E94E10F60934D027093DD
:100CF0004E0280934F029093500220E030E040E893
:100D00005EE30E9495100E94B30F9B01AC0186E93F
:100D100091E060E070E0B2C08FE292E069E171E0E2
:100D20000E94860D409151025091520260915302EF
:100D3000709154028FE292E00E94D90E80E590E01B
:100D40000E94F205882309F49CC0BE01882777FD24
:100D50008095982F0E94E10F609351027093520288
:100D600080935302909354020E94B30F9B01AC01F5
:100D700086E991E061E070E081C08FE292E062E29A
:100D800071E00E94860D409155025091560260918B
:100D90005702709158028FE292E00E94D90E80E5CE
:100DA00090E00E94F205882309F46BC0BE018827F9
:100DB00077FD8095982F0E94E10F60935502709304
:100DC000560280935702909358020E94B30F9B01E2
:100DD000AC0186E991E062E070E050C08FE292E001
:100DE0006BE271E00E94860D6091590270915A0287
:100DF00080915B0290915C020E94AE0F9B01AC015E
:100E00008FE292E0B9010E944E0E8FE292E060E321
:100E100071E00E94860D60914302709144028FE25E
:100E200092E00E944E0E8FE292E060E371E00E9439
:100E3000860D60914502709146028FE292E00E9419
:100E40004E0E80E590E00E94F2058823D1F0BE01AD
:100E5000882777FD8095982F0E94E10F60935902B3
:100E600070935A0280935B0290935C020E94B30FCE
:100E70009B01AC0186E991E063E070E0422F0E94A3
:100E80002A026EE170E080E090E00E946D08DF9140
:100E9000CF910895CF93DF93EC0182E30E94C308C2
:100EA000882311F090E00EC0BE01882777FD809561
:100EB000982F0E946D0882E30E94C30890E0882367
:100EC00009F491E0892FDF91CF910895DF92EF929D
:100ED000FF920F931F93CF93DF9380E00E9442090C
:100EE000909344028093430281E00E944209EC0106
:100EF0009093460280934502E0905902F0905A0286
:100F000000915B0210915C02DD24609143027091BC
:100F10004402882777FD8095982F0E94E10FA80151
:100F200097010E949110181614F4DD24D394D092E6
:100F30004B0210924C02BE01882777FD8095982FB6
:100F40000E94E10FA80197010E94911018161CF44D
:100F500081E080934C0211E0D12687E06D2D0E9444
:100F6000DC0860914C02612785E00E94DC088091DA
:100F70004B02882311F061E002C060914C0286E0D0
:100F80000E94DC0880E590E00E94F205882319F0B9
:100F900081E08093340180E590E00E944A07882335
:100FA00011F01092340180915D0290915E0218164A
:100FB00019062CF0809135019091360101C00197FE
:100FC00090935E0280935D02DF91CF911F910F910C
:100FD000FF90EF90DF9008950E94660780913401A2
:100FE000882319F00E940E0608950E94DF040895D8
:100FF0001F920F920FB60F9211242F933F938F934E
:101000009F93AF93BF938091630290916402A091EC
:101010006502B0916602309167020196A11DB11D73
:10102000232F2D5F2D3720F02D570196A11DB11DC7
:10103000209367028093630290936402A0936502F9
:10104000B093660280915F0290916002A09161026C
:10105000B09162020196A11DB11D80935F02909331
:101060006002A0936102B0936202BF91AF919F9121
:101070008F913F912F910F900FBE0F901F90189559
:101080006FB7F89420915F02309160024091610245
:101090005091620282B790E0A0E0B0E006B600FE98
:1010A00009C08F3F9105A105B10521F02F5F3F4F8A
:1010B0004F4F5F4F6FBF542F432F322F2227280FE0
:1010C000391F4A1F5B1F82E0220F331F441F551F29
:1010D0008A95D1F7B901CA010895EF92FF920F9353
:1010E0001F93CF93DF937B018C010E944008EB019B
:1010F0000EC00E9440086C1B7D0B685E7340C8F3F5
:101100000894E108F10801091109C851DC4FE11404
:10111000F1040105110569F7DF91CF911F910F913E
:10112000FF90EF900895E82FE695E695E695A82FB5
:10113000B0E0613099F42FB7F894F0E0EE0FFF1FA4
:10114000EB5BFE4F0190F081E02D9081A770B070B5
:10115000A957BE4F8C91982B908313C02FB7F8944A
:10116000F0E0EE0FFF1FEB5BFE4F0190F081E02DF2
:101170009081A770B070A957BE4F8C91809589233C
:1011800080832FBF0895A82FE82FE695E695E69572
:10119000F0E0EE0FFF1FED5AFE4F0190F081E02DC1
:1011A000E081B0E0A770B070A957BE4F8C91E823E2
:1011B00009F0E1E08E2F0895E82FE695E695E69593
:1011C000A82FB0E0613099F42FB7F894F0E0EE0F5B
:1011D000FF1FE95CFE4F0190F081E02D9081A77028
:1011E000B070A957BE4F8C91982B908313C02FB726
:1011F000F894F0E0EE0FFF1FE95CFE4F0190F081E4
:10120000E02D9081A770B070A957BE4F8C9180954A
:10121000892380832FBF0895E82FF0E0613051F4D7
:10122000EE0FFF1FEB5BFE4F0190F081E02D8FEF83
:1012300080830895EE0FFF1FEB5BFE4F0190F0815E
:10124000E02D10820895E82FF0E0EE0FFF1FED5A19
:10125000FE4F0190F081E02D80810895E82FF0E0AD
:10126000EE0FFF1FE95CFE4F0190F081E02D6083DF
:101270000895109261001092620080E487B987EEB1
:1012800086B908951F93182F80916101813021F450
:101290000E9439091092610180916201181721F4AE
:1012A000349A349BFECF0DC01093620187B1177042
:1012B000807E812B87B9349A349BFECF349A349B3D
:1012C000FECF24B135B1C9011F91089593B7987F1E
:1012D000982B93BF08959EB5987F982B9EBD089537
:1012E00083E00E946B091DBC1CBC87B7846087BF6C
:1012F0000895EAE8F0E09081987F982B9083089514
:1013000083E00E9479091092890010928800EDE72D
:10131000F0E08081846080830895893031F48FB556
:1013200082608FBD8FB58E7F0AC08A3019F48FB569
:10133000826002C08FB58D7F8FBD8FB581608FBDFC
:101340001BBC1ABC19BC18BC109279001092780012
:1013500008958FB580688FBD8FB58F7B8FBD089541
:101360008FB580628FBD8FB58F7E8FBD08958FB58D
:1013700088608FBD8FB58B7F8FBD08959BBD8ABD63
:10138000089599BD88BD0895909379008093780061
:101390000895893049F480918B00826080938B009E
:1013A00080918B008E7F0EC08A3021F480918B005B
:1013B000826003C080918B008D7F80938B00809131
:1013C0008B00816080938B001092870010928600C2
:1013D0001092850010928400109283001092820077
:1013E0000895EBE8F0E080818068808380818F7BC6
:1013F00080830895EBE8F0E08081806280838081C3
:101400008F7E80830895EBE8F0E0808188608083A0
:1014100080818B7F80830895853019F40E94A9090B
:101420000895843019F40E94B0090895833019F4A6
:101430000E94B7090895823019F40E94F1090895B5
:10144000813019F40E94FA090895882311F40E944A
:10145000030A0895909387008093860008959093DF
:101460008500809384000895909383008093820088
:101470000895EF92FF921F93CF93DF93182F7B0174
:101480008D31B0F08F3111F413E014C08E3111F4AE
:1014900014E010C08D3109F49BC0853211F410E0C6
:1014A0003DC0843211F411E039C0833219F48EC08A
:1014B0008330A0F18091680286FD0BC00E94700904
:1014C00078948AE00E948D098091680280648093FC
:1014D000680280916802C12FD0E090E0012E02C026
:1014E000959587950A94E2F780FD4CC087B3FE017D
:1014F000E157FE4F9081892B87BB812F0E940C0AF8
:101500002091680281E090E0012E02C0880F991FAF
:101510000A94E2F7282B2093680234C08091680275
:1015200087FD0BC00E94800978948AE00E94C90957
:101530008091680280688093680280916802C12F60
:10154000D0E090E0012E02C0959587950A94E2F7CD
:1015500080FD24C082B1FE01E157FE4F9081892BAE
:1015600082B9812F0E940C0A2091680281E090E0EC
:10157000012E02C0880F991F0A94E2F7282B2093AE
:1015800068020CC0153021F4C7010E94BE0922C0B8
:10159000143021F4C7010E94C1091CC0133021F48A
:1015A000C7010E94C40916C0123021F4C7010E946D
:1015B0002A0A10C0113021F4C7010E942F0A0AC064
:1015C000112341F4C7010E94340A04C012E0A6CFDF
:1015D00015E070CFDF91CF911F91FF90EF900895AC
:1015E0001F920F920FB60F920BB60F9211242F93EA
:1015F0003F934F935F936F937F938F939F93AF939B
:10160000BF93EF93FF9380916F0290917002892BAB
:1016100029F0E0916F02F09170020995FF91EF912E
:10162000BF91AF919F918F917F916F915F914F91FA
:101630003F912F910F900BBE0F900FBE0F901F90F8
:1016400018951F920F920FB60F920BB60F9211249E
:101650002F933F934F935F936F937F938F939F93BA
:10166000AF93BF93EF93FF938091790290917A02A9
:10167000892B29F0E0917902F0917A020995FF9186
:10168000EF91BF91AF919F918F917F916F915F91FA
:101690004F913F912F910F900BBE0F900FBE0F9067
:1016A0001F9018951F920F920FB60F920BB60F92C4
:1016B00011242F933F934F935F936F937F938F9357
:1016C0009F93AF93BF93EF93FF9380917F0290918D
:1016D0008002892B29F0E0917F02F0918002099528
:1016E000FF91EF91BF91AF919F918F917F916F91FA
:1016F0005F914F913F912F910F900BBE0F900FBEB6
:101700000F901F9018951F920F920FB60F920BB665
:101710000F9211242F933F934F935F936F937F9377
:101720008F939F93AF93BF93EF93FF9380916B023F
:1017300090916C02892B29F0E0916B02F0916C0280
:101740000995FF91EF91BF91AF919F918F917F91FB
:101750006F915F914F913F912F910F900BBE0F9022
:101760000FBE0F901F9018951F920F920FB60F92F9
:101770000BB60F9211242F933F934F935F936F9368
:101780007F938F939F93AF93BF93EF93FF9380913A
:10179000710290917202892B29F0E0917102F0910F
:1017A00072020995FF91EF91BF91AF919F918F9137
:1017B0007F916F915F914F913F912F910F900BBE51
:1017C0000F900FBE0F901F9018951F920F920FB69B
:1017D0000F920BB60F9211242F933F934F935F9369
:1017E0006F937F938F939F93AF93BF93EF93FF93E9
:1017F0008091730290917402892B29F0E091730219
:10180000F09174020995FF91EF91BF91AF919F9173
:101810008F917F916F915F914F913F912F910F9099
:101820000BBE0F900FBE0F901F9018951F920F9236
:101830000FB60F920BB60F9211242F933F934F9335
:101840005F936F937F938F939F93AF93BF93EF9328
:10185000FF938091750290917602892B29F0E09197
:101860007502F09176020995FF91EF91BF91AF91CA
:101870009F918F917F916F915F914F913F912F91A8
:101880000F900BBE0F900FBE0F901F9018951F92D8
:101890000F920FB60F920BB60F9211242F933F9316
:1018A0004F935F936F937F938F939F93AF93BF9368
:1018B000EF93FF938091770290917802892B29F022
:1018C000E0917702F09178020995FF91EF91BF9135
:1018D000AF919F918F917F916F915F914F913F91C8
:1018E0002F910F900BBE0F900FBE0F901F90189569
:1018F0001F920F920FB60F920BB60F9211242F93D7
:101900003F934F935F936F937F938F939F93AF9387
:10191000BF93EF93FF9380917B0290917C02892B80
:1019200029F0E0917B02F0917C020995FF91EF9103
:10193000BF91AF919F918F917F916F915F914F91E7
:101940003F912F910F900BBE0F900FBE0F901F90E5
:1019500018951F920F920FB60F920BB60F9211248B
:101960002F933F934F935F936F937F938F939F93A7
:10197000AF93BF93EF93FF93809181029091820286
:10198000892B29F0E0918102F09182020995FF9163
:10199000EF91BF91AF919F918F917F916F915F91E7
:1019A0004F913F912F910F900BBE0F900FBE0F9054
:1019B0001F9018951F920F920FB60F920BB60F92B1
:1019C00011242F933F934F935F936F937F938F9344
:1019D0009F93AF93BF93EF93FF9380918302909176
:1019E0008402892B29F0E0918302F0918402099509
:1019F000FF91EF91BF91AF919F918F917F916F91E7
:101A00005F914F913F912F910F900BBE0F900FBEA2
:101A10000F901F9018951F920F920FB60F920BB652
:101A20000F9211242F933F934F935F936F937F9364
:101A30008F939F93AF93BF93EF93FF938091850212
:101A400090918602892B29F0E0918502F09186021F
:101A50000995FF91EF91BF91AF919F918F917F91E8
:101A60006F915F914F913F912F910F900BBE0F900F
:101A70000FBE0F901F9018951F920F920FB60F92E6
:101A80000BB60F9211242F933F934F935F936F9355
:101A90007F938F939F93AF93BF93EF93FF93809127
:101AA000870290918802892B29F0E0918702F091BA
:101AB00088020995FF91EF91BF91AF919F918F910E
:101AC0007F916F915F914F913F912F910F900BBE3E
:101AD0000F900FBE0F901F90189583E061E00E9459
:101AE0000C0984E061E00E940C0978940E9469046A
:101AF0000E94EC07FDCFDC01ED91FC910190F0819B
:101B0000E02D099508950E947B0D08950F931F9372
:101B1000CF93DF938C01EB0104C02196C8010E9492
:101B2000830D68816623C9F7DF91CF911F910F91D3
:101B300008952F923F924F925F926F927F928F9271
:101B40009F92AF92BF92CF92DF92EF92FF920F934C
:101B50001F93DF93CF93CDB7DEB7A0970FB6F8945E
:101B6000DEBF0FBECDBF1C016A017B0141155105CF
:101B70006105710521F460E30E94830D4FC0882444
:101B800099245401422E55246624772401E010E064
:101B90000C0F1D1F080D191DC701B601A3019201ED
:101BA0000E940B11F80160830894811C911CA11CF8
:101BB000B11CC701B601A30192010E940B11C9011A
:101BC000DA016C017D01C114D104E104F104F1F6E4
:101BD00081E0E82EF12CEC0EFD1EE80CF91C3E0114
:101BE0000894611C711CD501C4010197A109B109B8
:101BF0006C01C818D9080FC0F601EE0DFF1D6081F9
:101C00006A3010F4605D01C0695CC1010E94830DFF
:101C10000894E108F1086E147F0471F7A0960FB6DE
:101C2000F894DEBF0FBECDBFCF91DF911F910F9112
:101C3000FF90EF90DF90CF90BF90AF909F908F90EC
:101C40007F906F905F904F903F902F9008952AE083
:101C50000E94990D0895EF92FF920F931F93CF93D7
:101C6000DF93EC017A018B0177FF0BC06DE20E94DC
:101C7000830D10950095F094E094E11CF11C011D7A
:101C8000111DCE01B801A7012AE00E94990DDF9134
:101C9000CF911F910F91FF90EF900895AB016627B0
:101CA00057FD6095762F0E942B0E08959F92AF925C
:101CB000BF92CF92DF92EF92FF920F931F93CF9339
:101CC000DF93EC017A018B01922ECB01BA0120E067
:101CD00030E040E050E00E94420F882344F4CE01FF
:101CE0006DE20E94830D17FB109517F9109520E007
:101CF00030E040E05FE3AA240BC0CA01B90120E054
:101D000030E040E251E40E94460F9B01AC01A394F5
:101D1000A91498F3C801B7010E94DE0E5B016C01A3
:101D20000E94B30F7B018C01CE01B801A7010E9474
:101D3000270E992029F0CE0162E371E00E94860D02
:101D4000C801B7010E94DF0F9B01AC01C601B501BC
:101D50000E94DD0E20C020E030E040E251E40E940D
:101D600095105B016C010E94AE0F9B01AC017B01E1
:101D7000CE01B9010E944E0E0027F7FC0095102FEE
:101D8000C801B7010E94E10F9B01AC01C601B5017A
:101D90000E94DD0E9A949920F1F6DF91CF911F9168
:101DA0000F91FF90EF90DF90CF90BF90AF909F90FA
:101DB000089522E00E94560E08955058BB27AA2786
:101DC0000ED075C166D130F06BD120F031F49F3F59
:101DD00011F41EF45BC10EF4E095E7FB51C1E92F4D
:101DE00077D180F3BA17620773078407950718F055
:101DF00071F49EF58FC10EF4E0950B2EBA2FA02D35
:101E00000B01B90190010C01CA01A0011124FF27A7
:101E1000591B99F0593F50F4503E68F11A16F040A2
:101E2000A22F232F342F4427585FF3CF46953795A1
:101E30002795A795F0405395C9F77EF41F16BA0B66
:101E4000620B730B840BBAF09150A1F0FF0FBB1F14
:101E5000661F771F881FC2F70EC0BA0F621F731F5D
:101E6000841F48F4879577956795B795F7959E3FBA
:101E700008F0B3CF9395880F08F09927EE0F979548
:101E800087950895D9D008F481E008950CD00FC14A
:101E900007D140F0FED030F021F45F3F19F0F0C0E0
:101EA000511139C1F3C014D198F39923C9F35523C3
:101EB000B1F3951B550BBB27AA276217730784073D
:101EC00038F09F5F5F4F220F331F441FAA1FA9F3F3
:101ED00033D00E2E3AF0E0E830D091505040E695E5
:101EE000001CCAF729D0FE2F27D0660F771F881F46
:101EF000BB1F261737074807AB07B0E809F0BB0B35
:101F0000802DBF01FF2793585F4F2AF09E3F510558
:101F100068F0B6C000C15F3FECF3983EDCF38695F5
:101F200077956795B795F7959F5FC9F7880F911DCE
:101F30009695879597F90895E1E0660F771F881FBA
:101F4000BB1F621773078407BA0720F0621B730B6D
:101F5000840BBA0BEE1F88F7E095089504D06894BF
:101F6000B111D9C00895BCD088F09F5790F0B92F17
:101F70009927B751A0F0D1F0660F771F881F991FDE
:101F80001AF0BA95C9F712C0B13081F0C3D0B1E0F0
:101F90000895C0C0672F782F8827B85F39F0B93F00
:101FA000CCF3869577956795B395D9F73EF49095E0
:101FB0008095709561957F4F8F4F9F4F0895E8945E
:101FC00009C097FB3EF490958095709561957F4F81
:101FD0008F4F9F4F9923A9F0F92F96E9BB2793952F
:101FE000F695879577956795B795F111F8CFFAF43F
:101FF000BB0F11F460FF1BC06F5F7F4F8F4F9F4F70
:1020000016C0882311F096E911C0772321F09EE8CD
:10201000872F762F05C0662371F096E8862F70E033
:1020200060E02AF09A95660F771F881FDAF7880F0D
:102030009695879597F90895990F0008550FAA0B63
:10204000E0E8FEEF16161706E807F907C0F01216CB
:102050001306E407F50798F0621B730B840B950BCE
:1020600039F40A2661F0232B242B252B21F4089523
:102070000A2609F4A140A6958FEF811D811D0895C0
:1020800097F99F6780E870E060E008959FEF80EC2B
:10209000089500240A9416161706180609060895CE
:1020A00000240A9412161306140605060895092E34
:1020B0000394000C11F4882352F0BB0F40F4BF2BA3
:1020C00011F460FF04C06F5F7F4F8F4F9F4F0895E3
:1020D00057FD9058440F551F59F05F3F71F04795D9
:1020E000880F97FB991F61F09F3F79F087950895BE
:1020F000121613061406551FF2CF4695F1DF08C0DD
:10210000161617061806991FF1CF869571056105F9
:1021100008940895E894BB2766277727CB0197F9A1
:1021200008958ADF08F48FEF08950BD0C0CFB1DF98
:1021300028F0B6DF18F0952309F0A2CFA7CF11241D
:10214000EACFC6DFA0F3959FD1F3950F50E0551F5E
:10215000629FF001729FBB27F00DB11D639FAA27FC
:10216000F00DB11DAA1F649F6627B00DA11D661F4B
:10217000829F2227B00DA11D621F739FB00DA11D6C
:10218000621F839FA00D611D221F749F3327A00D26
:10219000611D231F849F600D211D822F762F6A2FC2
:1021A00011249F5750408AF0E1F088234AF0EE0F47
:1021B000FF1FBB1F661F771F881F91505040A9F754
:1021C0009E3F510570F05CCFA6CF5F3FECF3983E89
:1021D000DCF3869577956795B795F795E7959F5FBB
:1021E000C1F7FE2B880F911D9695879597F9089555
:1021F00097FB092E07260AD077FD04D02ED006D0F3
:1022000000201AF4709561957F4F0895F6F7909528
:1022100081959F4F0895A1E21A2EAA1BBB1BFD01B9
:102220000DC0AA1FBB1FEE1FFF1FA217B307E407B5
:10223000F50720F0A21BB30BE40BF50B661F771F0D
:10224000881F991F1A9469F76095709580959095ED
:102250009B01AC01BD01CF010895AA1BBB1B51E13D
:1022600007C0AA1FBB1FA617B70710F0A61BB70B06
:10227000881F991F5A95A9F780959095BC01CD01AB
:102280000895EE0FFF1F0590F491E02D0994E19958
:10229000FECF9FBB8EBBE09A99278DB30895262F62
:1022A000E199FECF9FBB8EBB2DBB0FB6F894E29A8F
:0C22B000E19A0FBE01960895F894FFCF4C
:1022BC004C3A0020523A0053657420746F20003F52
:1022CC000053706565643A200050204761696E3A8E
:1022DC00200044204761696E3A200054483A20009F
:1022EC0020002E0001C800320035003B00380023CE
:1022FC000062006500310034003A003700220061B2
:10230C0000640030003300390036002100200063E7
:10231C000001FF1800190026002700050004000129
:10232C00000000000000006F0100000000E003331B
:10233C000295037A03AF03010204081020408020A9
:06234C0010088040200093
:00000001FF
