:100000000C9448000C947C000C947C000C947C00B4
:100010000C947C000C947C000C947C000C947C0070
:100020000C947C000C94F00C0C94990B0C94BF0C69
:100030000C942C0C0C945D0C0C94680B0C94FB0B26
:100040000C9470080C947C000C948B020C941A0392
:100050000C947C000C947C000C947C000C947C0030
:100060000C948E0C0C94B40D0C94210D0C94520D28
:100070000C94830D0C94CA0B0C945C020C94D30268
:100080000C947C000C947C000C947C0042046A0468
:1000900011241FBECFEFD0E1DEBFCDBF88E483BF08
:1000A00084E00E94DE0912BE87B7816087BF789422
:1000B00011E0A0E0B1E0ECEAF3E200E00BBF02C027
:1000C00007900D92A639B107D9F712E0A6E9B1E081
:1000D00001C01D92A538B107E1F710E0C0E9D0E0FA
:1000E00004C02297FE010E94BB11CC38D107C9F78A
:1000F0000E94E50D0C94D4110C94000085E060E0A2
:1001000070E00E94B10A84E060E070E00E94B10AF1
:1001100081E060E070E00E94B10A80E060E070E0A1
:100120000E94B10A08950F931F93CF93DF93EB01C1
:100130008A01CC0FDD1F57FD0CC0FE01ED59FE4FAB
:10014000808161E00E945409C559DE4F8881B80161
:100150000EC0FE01ED59FE4F808160E00E945409FF
:10016000C559DE4F66277727601B710B88810E9477
:10017000B10ADF91CF911F910F9108951F93CF93F3
:10018000DF93C0E0D0E0FE01ED59FE4F1081812FDA
:1001900061E00E940B09812F61E00E945409FE0179
:1001A000E559FE4F808160E070E00E94B10A22961E
:1001B000C830D10541F7DF91CF911F910895FC011F
:1001C00010828AE090E0938382830895CF93DF9337
:1001D000EC018A8160E00E9454098D8160E00E94F8
:1001E00084098D8160E00E94A6098B8161E00E94F4
:1001F00054098C8161E00E9454090000000010C085
:100200008C8160E00E9454090000000000000000A2
:100210008C8161E00E945409000000000000000091
:100220008D810E949B0987FDEBCF8C8160E00E944D
:100230005409DF91CF910895FF920F931F938C0182
:10024000F62E0E94E600F801828161E00E945409C6
:10025000F801838160E00E945409F801848161E023
:100260000E945409F801858161E00E948409F80127
:1002700085816F2D0E94A60900000000000000008B
:10028000F801848160E00E945409F801858160E0F2
:100290000E948409F80185816FEF0E94A6091F91D1
:1002A0000F91FF900895EF92FF920F931F93CF93BA
:1002B000DF937C01042F6115710551F0EB0110E013
:1002C00005C0C70169910E941C011F5F1017C8F388
:1002D000DF91CF911F910F91FF90EF900895DF93E1
:1002E000CF930F92CDB7DEB76983BE016F5F7F4FAB
:1002F00041E00E9453010F90CF91DF910895FF924A
:100300000F931F938C01F62E0E94E600F801828164
:1003100060E00E945409F801838160E00E94540962
:10032000F801848161E00E945409F801858161E04F
:100330000E948409F80185816F2D0E94A6090000A2
:10034000000000000000F801848160E00E94540970
:10035000F801858160E00E948409F80185816FEFD2
:100360000E94A6091F910F91FF900895423031F02D
:10037000433031F0413029F4605C03C06C5E01C051
:100380006C5A60680E947F01089562E00E947F01BC
:10039000089561E00E947F0108950F931F938C01DF
:1003A000FC01828160E00E945409F801838160E0D1
:1003B0000E945409F801848160E00E945409F80108
:1003C000828161E00E940B09F801838161E00E9453
:1003D0000B09F801848161E00E940B09F801858115
:1003E00060E00E948409F80185816FEF0E94A609F0
:1003F0001F910F9108950F931F938C010E94CD01BF
:10040000C80168E30E947F01C80161E00E947F018A
:10041000C80166E00E947F01C8016CE00E947F0174
:10042000C80162E00E947F01C80160E80E947F016C
:100430001F910F9108950F93FC0187E791E091833D
:1004400080836283438324830583CF010E94FB0161
:100450000F910895CB01642F0E94C7110895CB011D
:100460000E94BF110895FC0124813581C9010895BE
:10047000DC01FC0182819381809714F080E0089573
:10048000FD0182819381019693838283848195818A
:10049000E80FF91F60870196FD01958384832D91F4
:1004A0003C9111978217930714F481E00895FD01A0
:1004B0001582148281E008951F920F920FB60F9259
:1004C0000BB60F9211242F933F934F935F936F932B
:1004D0007F938F939F93AF93BF93EF93FF93E0919D
:1004E0002D02F0912E02608185EE91E00E9438028B
:1004F000FF91EF91BF91AF919F918F917F916F91FC
:100500005F914F913F912F910F900BBE0F900FBEB7
:100510000F901F9018951F920F920FB60F920BB667
:100520000F9211242F933F934F935F936F937F9379
:100530008F939F93AF93BF93EF93FF93E091E1016C
:10054000F091E201608189E991E00E943802FF9117
:10055000EF91BF91AF919F918F917F916F915F913B
:100560004F913F912F910F900BBE0F900FBE0F90A8
:100570001F901895DC01FC01828193810197938380
:10058000828386819781E80FF91F40850196FD01DE
:10059000978386832D913C918217930714F01782DD
:1005A0001682842F08951F920F920FB60F920BB6EA
:1005B0000F9211240F931F932F933F934F935F93A9
:1005C0006F937F938F939F93AF93BF93EF93FF931B
:1005D00080910F02909110021816190654F40091A0
:1005E0002D0210912E028DE092E00E94BA02F801D5
:1005F000808380910F0290911002892B31F4E09159
:100600002B02F0912C0288E98083FF91EF91BF913A
:10061000AF919F918F917F916F915F914F913F919A
:100620002F911F910F910F900BBE0F900FBE0F9047
:100630001F9018951F920F920FB60F920BB60F9244
:1006400011240F931F932F933F934F935F936F93B7
:100650007F938F939F93AF93BF93EF93FF9380917B
:10066000C3019091C4011816190654F40091E101D8
:100670001091E20181EC91E00E94BA02F8018083BE
:100680008091C3019091C401892B31F4E091DF0185
:10069000F091E00188E98083FF91EF91BF91AF91E4
:1006A0009F918F917F916F915F914F913F912F918A
:1006B0001F910F910F900BBE0F900FBE0F901F90C8
:1006C0001895DC01FC0182819381019793838283D9
:1006D00086819781E80FF91F40850196FD01978378
:1006E00086832D913C918217930714F0178216820E
:1006F000842F0895FC0184819581892B19F42FEFB3
:100700003FEF06C0CF0102960E946103282F30E020
:10071000C9010895CF93DF93EC01EE81FF81E80FCB
:10072000F91F8085DF91CF910895FC018481958127
:10073000892B19F42FEF3FEF06C0CF0102960E94DC
:100740008A03282F30E0C9010895FC011382128228
:10075000828193819783868395838483089502960B
:100760000E94A5030895FC0180E290E091838083BC
:10077000CF010E94A5030895DC01FC0182819381D1
:10078000409714F080E00895FD01828193810196E5
:100790009383828384819581E80FF91F6087019696
:1007A000FD01958384832D913C91119782179307C6
:1007B00014F481E00895FD011582148281E008950A
:1007C000CF93DF93EC018CA59DA54097E4F7F894B7
:1007D000CE018A960E94BC03C85BDF4FE881F98195
:1007E0008081806280837894DF91CF910895FC01AD
:1007F0001382128282819381978386839583848377
:100800000895FC0180E190E091838083CF010E94F4
:10081000F70308956F927F928F929F92AF92BF924B
:10082000CF92DF92EF92FF920F931F936C015B01C7
:100830004A013901FC018DE791E081939193CF0149
:100840000E94B303C6018A960E94010482E490E0EC
:10085000C80ED91EF601A192B19281929192619235
:10086000719201931193F182E0821F910F91FF9099
:10087000EF90DF90CF90BF90AF909F908F907F9040
:100880006F900895EF92FF920F931F9387E991E085
:1008900060E970E049E250E02BE230E00AE210E06B
:1008A000FCE2EF2EF12C0E940A0483EE91E068E94D
:1008B00070E049E950E02BE930E00AE910E0ECE9AA
:1008C000EE2EF12C0E940A041F910F91FF90EF90E1
:1008D000089508950F931F938FE292E06AE14BE130
:1008E0002CE102E00E941B0285E392E00E94BE0020
:1008F00087E392E00E94DF008BE392E00E94DF003A
:100900008FE392E00E94DF0006E911E0C80160E099
:1009100070E00E942F0290E0880F991F880F991FA6
:10092000AA2797FDA095BA2FBC01CD010E945910AE
:1009300060934B0270934C0280934D0290934E0251
:10094000C80161E070E00E942F0290E0A0E0B0E0FA
:10095000BC01CD010E94571060934F02709350026A
:100960008093510290935202C80162E070E00E94AD
:100970002F0290E0A0E0B0E0BC01CD010E94571032
:1009800060935302709354028093550290935602E1
:10099000C80163E070E00E942F0290E0A0E0B0E0A8
:1009A000BC01CD010E94571060935702709358020A
:1009B0008093590290935A021F910F9108950F93BB
:1009C0001F930FE212E0C8010E94C901C8010E94F2
:1009D000C501C80160E071E00E94FE0D6091430214
:1009E00070914402C8010E94C60EC80163E071E024
:1009F0000E94FE0D6091450270914602C8010E945E
:100A0000C60E1F910F91089581E30E943B0920E0DB
:100A100030E0882311F421E030E0C9010895CF933C
:100A2000DF9385E392E00E947E0087E00E94BA098E
:100A300064E070E00E947011EB018FE292E00E948E
:100A4000C9018FE292E060E041E00E94B6018FE2CE
:100A500092E067E071E00E94FE0D8FE292E0BE013D
:100A60000E94C60E8FE292E06FE071E00E94FE0DE0
:100A70008FE292E00E94C50186E00E94BA096FEF02
:100A800070E00E9470116130710509F44FC062304E
:100A900071051CF4672B31F0BDC06230710509F09F
:100AA000B9C07EC08FE292E061E171E00E94FE0D6C
:100AB00040914B0250914C0260914D0270914E0258
:100AC0008FE292E00E94510F0E940405892B09F4E5
:100AD000FCC06AE070E080E090E00E94E5080E94BF
:100AE0000405892B09F4F1C0CC0FDD1FCC0FDD1FED
:100AF000BE01882777FD8095982F0E94591060933A
:100B00004B0270934C0280934D0290934E0220E072
:100B100030E040E85EE30E940D110E942B109B0123
:100B2000AC0186E991E060E070E0CCC08FE292E039
:100B300069E171E00E94FE0D40914F025091500218
:100B400060915102709152028FE292E00E94510F27
:100B50000E940405892B09F4B8C06AE070E080E0C7
:100B600090E00E94E5080E940405892B09F4ADC0BD
:100B7000BE01882777FD8095982F0E9459106093B9
:100B80004F027093500280935102909352020E9440
:100B90002B109B01AC0186E991E061E070E092C00E
:100BA0008FE292E062E271E00E94FE0D40915302FA
:100BB0005091540260915502709156028FE292E07A
:100BC0000E94510F0E940405892B09F47EC06AE03F
:100BD00070E080E090E00E94E5080E940405892B07
:100BE00009F473C0BE01882777FD8095982F0E9475
:100BF000591060935302709354028093550290935E
:100C000056020E942B109B01AC0186E991E062E044
:100C100070E058C08FE292E06BE271E00E94FE0D3E
:100C200060915702709158028091590290915A0236
:100C30000E9426109B01AC018FE292E0B9010E9454
:100C4000C60E8FE292E062E371E00E94FE0D6091B9
:100C50004302709144028FE292E00E94C60E8FE23E
:100C600092E062E371E00E94FE0D60914502709196
:100C700046028FE292E00E94C60E0E940405892B74
:100C800021F16AE070E080E090E00E94E5080E94B7
:100C90000405892BD1F0BE01882777FD8095982F18
:100CA0000E94591060935702709358028093590222
:100CB00090935A020E942B109B01AC0186E991E0AF
:100CC00063E070E0422F0E942A02DF91CF910895E5
:100CD0009F92AF92BF92CF92DF92EF92FF920F93CB
:100CE0001F930E94DF0460914302709144028827A1
:100CF00077FD8095982F0E9459105B016C01E09060
:100D00005702F09058020091590210915A0299240A
:100D1000A80197010E9409111816BCF49924939414
:100D20006091450270914602882777FD8095982F43
:100D30000E945910A80197010E94091118162CF45D
:100D400010924A021092490237C0C601B501A801AB
:100D500097010E94BA0F8823BCF4609145027091FC
:100D60004602882777FD8095982F0E945910A80188
:100D700097010E94091118163CF48FEF9FEF909392
:100D80004A028093490220C09920B1F06091450247
:100D900070914602882777FD8095982F0E94591000
:100DA000A80197010E94BA0F882334F481E090E0F3
:100DB00090934A0280934902C601B501A8019701A8
:100DC0000E94BA0F88235CF560914502709146023B
:100DD000882777FD8095982F0E945910A8019701C8
:100DE0000E94BA0F8823DCF4609147027091480298
:100DF000882777FD8095982F0E94591020E030E0D9
:100E000040E85FEB0E94BA0F18161CF08BEF9FEFC3
:100E100002C085E090E090934A0280934902E090FE
:100E20004902F0904A02B701882777FD8095982FF4
:100E30000E94591020914F0230915002409151026E
:100E4000509152020E940D115B016C01809147028A
:100E500090914802E81AF90A0027F7FC0095102F34
:100E6000C801B7010E9459102091530230915402D9
:100E700040915502509156020E940D119B01AC0108
:100E8000C601B5010E94560F7B018C0120914B02D7
:100E900030914C0240914D0250914E020E94560FEB
:100EA0000E9426109B01AC0185E392E061E070E0B6
:100EB000A9010E94930060914B0270914C028091B5
:100EC0004D0290914E02A80197010E94550F0E9479
:100ED00026109B01AC0185E392E063E070E0A9017C
:100EE0000E9493008FE292E060E041E00E94B60130
:100EF0008FE292E060E071E00E94FE0D60914B0293
:100F000070914C0280914D0290914E02A801970180
:100F10000E94550FAB01BC018FE292E00E94510F7D
:100F20008FE292E063E071E00E94FE0DC801B7011C
:100F300020914B0230914C0240914D0250914E0253
:100F40000E94560FAB01BC018FE292E00E94510F4C
:100F50008091490290914A029093480280934702FF
:100F60001F910F91FF90EF90DF90CF90BF90AF90C7
:100F70009F900895DF92EF92FF920F931F9380E06E
:100F80000E94BA09909344028093430281E00E9438
:100F9000BA09909346028093450210E060914302A3
:100FA00070914402882777FD8095982F0E945910F0
:100FB00020915702309158024091590250915A02A3
:100FC0000E94BA0F88230CF411E087E0612F0E9481
:100FD000540910E06091450270914602882777FD20
:100FE0008095982F0E9459102091570230915802F5
:100FF0004091590250915A020E94BA0F88230CF472
:1010000011E085E0612F0E945409E0905702F090B2
:1010100058020091590210915A0260914302709156
:101020004402882777FD8095982F0E945910A801C7
:1010300097010E94BA0F87FF11C0DD24609145021D
:1010400070914602882777FD8095982F0E9459104D
:10105000A80197010E94BA0F87FD02C0DD24D39436
:1010600086E06D2D0E9454090E940405892B71F0C1
:1010700064E170E080E090E00E94E5080E940405D1
:10108000892BB1F081E08093360112C082E30E9487
:101090003B09882369F464E170E080E090E00E94FD
:1010A000E50882E30E943B09882311F01092360183
:1010B0001F910F91FF90EF90DF9008950E94BA0763
:1010C00080913601882319F00E940F0502C00E940A
:1010D000680664E170E080E090E00E94E508089511
:1010E0001F920F920FB60F9211242F933F938F935D
:1010F0009F93AF93BF9380915F0290916002A09104
:101100006102B0916202309163020196A11DB11D8E
:10111000232F2D5F2D3720F02D570196A11DB11DD6
:101120002093630280935F0290936002A093610218
:10113000B093620280915B0290915C02A0915D028B
:10114000B0915E020196A11DB11D80935B02909348
:101150005C02A0935D02B0935E02BF91AF919F913C
:101160008F913F912F910F900FBE0F901F90189568
:101170006FB7F89420915B0230915C0240915D0260
:1011800050915E0282B790E0A0E0B0E006B600FEAB
:1011900009C08F3F9105A105B10521F02F5F3F4F99
:1011A0004F4F5F4F6FBF542F432F322F2227280FEF
:1011B000391F4A1F5B1F82E0220F331F441F551F38
:1011C0008A95D1F7B901CA010895EF92FF920F9362
:1011D0001F93CF93DF937B018C010E94B808EB0132
:1011E0000EC00E94B8086C1B7D0B685E7340C8F38C
:1011F0000894E108F10801091109C851DC4FE11414
:10120000F1040105110569F7DF91CF911F910F914D
:10121000FF90EF900895E82FE695E695E695A82FC4
:10122000B0E0613099F42FB7F894F0E0EE0FFF1FB3
:10123000EB5BFE4F0190F081E02D9081A770B070C4
:10124000A957BE4F8C91982B908313C02FB7F89459
:10125000F0E0EE0FFF1FEB5BFE4F0190F081E02D01
:101260009081A770B070A957BE4F8C91809589234B
:1012700080832FBF0895A82FE82FE695E695E69581
:10128000F0E0EE0FFF1FED5AFE4F0190F081E02DD0
:10129000E081B0E0A770B070A957BE4F8C91E823F1
:1012A00009F0E1E08E2F0895E82FE695E695E695A2
:1012B000A82FB0E0613099F42FB7F894F0E0EE0F6A
:1012C000FF1FE95CFE4F0190F081E02D9081A77037
:1012D000B070A957BE4F8C91982B908313C02FB735
:1012E000F894F0E0EE0FFF1FE95CFE4F0190F081F3
:1012F000E02D9081A770B070A957BE4F8C9180955A
:10130000892380832FBF0895E82FF0E0613051F4E6
:10131000EE0FFF1FEB5BFE4F0190F081E02D8FEF92
:1013200080830895EE0FFF1FEB5BFE4F0190F0816D
:10133000E02D10820895E82FF0E0EE0FFF1FED5A28
:10134000FE4F0190F081E02D80810895E82FF0E0BC
:10135000EE0FFF1FE95CFE4F0190F081E02D6083EE
:101360000895109261001092620080E487B987EEC0
:1013700086B908951F93182F80916101813021F45F
:101380000E94B1091092610180916201181721F445
:10139000349A349BFECF0DC01093620187B1177051
:1013A000807E812B87B9349A349BFECF349A349B4C
:1013B000FECF24B135B1C9011F91089593B7987F2D
:1013C000982B93BF08959EB5987F982B9EBD089546
:1013D00083E00E94E3091DBC1CBC87B7846087BF03
:1013E0000895EAE8F0E09081987F982B9083089523
:1013F00083E00E94F1091092890010928800EDE7C5
:10140000F0E08081846080830895893031F48FB565
:1014100082608FBD8FB58E7F0AC08A3019F48FB578
:10142000826002C08FB58D7F8FBD8FB581608FBD0B
:101430001BBC1ABC19BC18BC109279001092780021
:1014400008958FB580688FBD8FB58F7B8FBD089550
:101450008FB580628FBD8FB58F7E8FBD08958FB59C
:1014600088608FBD8FB58B7F8FBD08959BBD8ABD72
:10147000089599BD88BD0895909379008093780070
:101480000895893049F480918B00826080938B00AD
:1014900080918B008E7F0EC08A3021F480918B006A
:1014A000826003C080918B008D7F80938B00809140
:1014B0008B00816080938B001092870010928600D1
:1014C0001092850010928400109283001092820086
:1014D0000895EBE8F0E080818068808380818F7BD5
:1014E00080830895EBE8F0E08081806280838081D2
:1014F0008F7E80830895EBE8F0E0808188608083B0
:1015000080818B7F80830895853019F40E94210AA1
:101510000895843019F40E94280A0895833019F43C
:101520000E942F0A0895823019F40E94690A0895D2
:10153000813019F40E94720A0895882311F40E94E0
:101540007B0A089590938700809386000895909376
:101550008500809384000895909383008093820097
:101560000895EF92FF921F93CF93DF93182F7B0183
:101570008D31B0F08F3111F413E014C08E3111F4BD
:1015800014E010C08D3109F49BC0853211F410E0D5
:101590003DC0843211F411E039C0833219F48EC099
:1015A0008330A0F18091640286FD0BC00E94E8099F
:1015B00078948AE00E94050A809164028064809396
:1015C000640280916402C12FD0E090E0012E02C03D
:1015D000959587950A94E2F780FD4CC087B3FE018C
:1015E000E157FE4F9081892B87BB812F0E94840A8F
:1015F0002091640281E090E0012E02C0880F991FC3
:101600000A94E2F7282B2093640234C0809164028C
:1016100087FD0BC00E94F80978948AE00E94410A75
:101620008091640280688093640280916402C12F7B
:10163000D0E090E0012E02C0959587950A94E2F7DC
:1016400080FD24C082B1FE01E157FE4F9081892BBD
:1016500082B9812F0E94840A2091640281E090E087
:10166000012E02C0880F991F0A94E2F7282B2093BD
:1016700064020CC0153021F4C7010E94360A22C052
:10168000143021F4C7010E94390A1CC0133021F420
:10169000C7010E943C0A16C0123021F4C7010E9403
:1016A000A20A10C0113021F4C7010E94A70A0AC083
:1016B000112341F4C7010E94AC0A04C012E0A6CF76
:1016C00015E070CFDF91CF911F91FF90EF900895BB
:1016D0001F920F920FB60F920BB60F9211242F93F9
:1016E0003F934F935F936F937F938F939F93AF93AA
:1016F000BF93EF93FF9380916B0290916C02892BC3
:1017000029F0E0916B02F0916C020995FF91EF9145
:10171000BF91AF919F918F917F916F915F914F9109
:101720003F912F910F900BBE0F900FBE0F901F9007
:1017300018951F920F920FB60F920BB60F921124AD
:101740002F933F934F935F936F937F938F939F93C9
:10175000AF93BF93EF93FF938091750290917602C0
:10176000892B29F0E0917502F09176020995FF919D
:10177000EF91BF91AF919F918F917F916F915F9109
:101780004F913F912F910F900BBE0F900FBE0F9076
:101790001F9018951F920F920FB60F920BB60F92D3
:1017A00011242F933F934F935F936F937F938F9366
:1017B0009F93AF93BF93EF93FF9380917B029091A0
:1017C0007C02892B29F0E0917B02F0917C02099543
:1017D000FF91EF91BF91AF919F918F917F916F9109
:1017E0005F914F913F912F910F900BBE0F900FBEC5
:1017F0000F901F9018951F920F920FB60F920BB675
:101800000F9211242F933F934F935F936F937F9386
:101810008F939F93AF93BF93EF93FF938091670252
:1018200090916802892B29F0E0916702F09168029B
:101830000995FF91EF91BF91AF919F918F917F910A
:101840006F915F914F913F912F910F900BBE0F9031
:101850000FBE0F901F9018951F920F920FB60F9208
:101860000BB60F9211242F933F934F935F936F9377
:101870007F938F939F93AF93BF93EF93FF93809149
:101880006D0290916E02892B29F0E0916D02F0912A
:101890006E020995FF91EF91BF91AF919F918F914A
:1018A0007F916F915F914F913F912F910F900BBE60
:1018B0000F900FBE0F901F9018951F920F920FB6AA
:1018C0000F920BB60F9211242F933F934F935F9378
:1018D0006F937F938F939F93AF93BF93EF93FF93F8
:1018E00080916F0290917002892B29F0E0916F0234
:1018F000F09170020995FF91EF91BF91AF919F9187
:101900008F917F916F915F914F913F912F910F90A8
:101910000BBE0F900FBE0F901F9018951F920F9245
:101920000FB60F920BB60F9211242F933F934F9344
:101930005F936F937F938F939F93AF93BF93EF9337
:10194000FF938091710290917202892B29F0E091AE
:101950007102F09172020995FF91EF91BF91AF91E1
:101960009F918F917F916F915F914F913F912F91B7
:101970000F900BBE0F900FBE0F901F9018951F92E7
:101980000F920FB60F920BB60F9211242F933F9325
:101990004F935F936F937F938F939F93AF93BF9377
:1019A000EF93FF938091730290917402892B29F039
:1019B000E0917302F09174020995FF91EF91BF914C
:1019C000AF919F918F917F916F915F914F913F91D7
:1019D0002F910F900BBE0F900FBE0F901F90189578
:1019E0001F920F920FB60F920BB60F9211242F93E6
:1019F0003F934F935F936F937F938F939F93AF9397
:101A0000BF93EF93FF938091770290917802892B97
:101A100029F0E0917702F09178020995FF91EF911A
:101A2000BF91AF919F918F917F916F915F914F91F6
:101A30003F912F910F900BBE0F900FBE0F901F90F4
:101A400018951F920F920FB60F920BB60F9211249A
:101A50002F933F934F935F936F937F938F939F93B6
:101A6000AF93BF93EF93FF9380917D0290917E029D
:101A7000892B29F0E0917D02F0917E020995FF917A
:101A8000EF91BF91AF919F918F917F916F915F91F6
:101A90004F913F912F910F900BBE0F900FBE0F9063
:101AA0001F9018951F920F920FB60F920BB60F92C0
:101AB00011242F933F934F935F936F937F938F9353
:101AC0009F93AF93BF93EF93FF9380917F02909189
:101AD0008002892B29F0E0917F02F0918002099524
:101AE000FF91EF91BF91AF919F918F917F916F91F6
:101AF0005F914F913F912F910F900BBE0F900FBEB2
:101B00000F901F9018951F920F920FB60F920BB661
:101B10000F9211242F933F934F935F936F937F9373
:101B20008F939F93AF93BF93EF93FF938091810225
:101B300090918202892B29F0E0918102F09182023A
:101B40000995FF91EF91BF91AF919F918F917F91F7
:101B50006F915F914F913F912F910F900BBE0F901E
:101B60000FBE0F901F9018951F920F920FB60F92F5
:101B70000BB60F9211242F933F934F935F936F9364
:101B80007F938F939F93AF93BF93EF93FF93809136
:101B9000830290918402892B29F0E0918302F091D5
:101BA00084020995FF91EF91BF91AF919F918F9121
:101BB0007F916F915F914F913F912F910F900BBE4D
:101BC0000F900FBE0F901F90189583E061E00E9468
:101BD000840984E061E00E94840978940E94690489
:101BE0000E945E08FDCFDC01ED91FC910190F08137
:101BF000E02D099508950E94F30D08950F931F930A
:101C0000CF93DF938C01EB0104C02196C8010E94A1
:101C1000FB0D68816623C9F7DF91CF911F910F916A
:101C200008952F923F924F925F926F927F928F9280
:101C30009F92AF92BF92CF92DF92EF92FF920F935B
:101C40001F93DF93CF93CDB7DEB7A0970FB6F8946D
:101C5000DEBF0FBECDBF1C016A017B0141155105DE
:101C60006105710521F460E30E94FB0D4FC08824DB
:101C700099245401422E55246624772401E010E073
:101C80000C0F1D1F080D191DC701B601A3019201FC
:101C90000E948311F80160830894811C911CA11C8F
:101CA000B11CC701B601A30192010E948311C901B1
:101CB000DA016C017D01C114D104E104F104F1F6F3
:101CC00081E0E82EF12CEC0EFD1EE80CF91C3E0123
:101CD0000894611C711CD501C4010197A109B109C7
:101CE0006C01C818D9080FC0F601EE0DFF1D608108
:101CF0006A3010F4605D01C0695CC1010E94FB0D97
:101D00000894E108F1086E147F0471F7A0960FB6ED
:101D1000F894DEBF0FBECDBFCF91DF911F910F9121
:101D2000FF90EF90DF90CF90BF90AF909F908F90FB
:101D30007F906F905F904F903F902F9008952AE092
:101D40000E94110E0895EF92FF920F931F93CF936D
:101D5000DF93EC017A018B0177FF0BC06DE20E94EB
:101D6000FB0D10950095F094E094E11CF11C011D11
:101D7000111DCE01B801A7012AE00E94110EDF91CA
:101D8000CF911F910F91FF90EF900895AB016627BF
:101D900057FD6095762F0E94A30E08959F92AF92F3
:101DA000BF92CF92DF92EF92FF920F931F93CF9348
:101DB000DF93EC017A018B01922ECB01BA0120E076
:101DC00030E040E050E00E94BA0F882344F4CE0196
:101DD0006DE20E94FB0D17FB109517F9109520E09E
:101DE00030E040E05FE3AA240BC0CA01B90120E063
:101DF00030E040E251E40E94BE0F9B01AC01A3948D
:101E0000A91498F3C801B7010E94560F5B016C0139
:101E10000E942B107B018C01CE01B801A7010E940A
:101E20009F0E992029F0CE0164E371E00E94FE0D1F
:101E3000C801B7010E9457109B01AC01C601B50152
:101E40000E94550F20C020E030E040E251E40E94A3
:101E50000D115B016C010E9426109B01AC017B01FE
:101E6000CE01B9010E94C60E0027F7FC0095102F85
:101E7000C801B7010E9459109B01AC01C601B50110
:101E80000E94550F9A949920F1F6DF91CF911F91FE
:101E90000F91FF90EF90DF90CF90BF90AF909F9009
:101EA000089522E00E94CE0E08955058BB27AA271D
:101EB0000ED075C166D130F06BD120F031F49F3F68
:101EC00011F41EF45BC10EF4E095E7FB51C1E92F5C
:101ED00077D180F3BA17620773078407950718F064
:101EE00071F49EF58FC10EF4E0950B2EBA2FA02D44
:101EF0000B01B90190010C01CA01A0011124FF27B7
:101F0000591B99F0593F50F4503E68F11A16F040B1
:101F1000A22F232F342F4427585FF3CF46953795B0
:101F20002795A795F0405395C9F77EF41F16BA0B75
:101F3000620B730B840BBAF09150A1F0FF0FBB1F23
:101F4000661F771F881FC2F70EC0BA0F621F731F6C
:101F5000841F48F4879577956795B795F7959E3FC9
:101F600008F0B3CF9395880F08F09927EE0F979557
:101F700087950895D9D008F481E008950CD00FC159
:101F800007D140F0FED030F021F45F3F19F0F0C0EF
:101F9000511139C1F3C014D198F39923C9F35523D2
:101FA000B1F3951B550BBB27AA276217730784074C
:101FB00038F09F5F5F4F220F331F441FAA1FA9F302
:101FC00033D00E2E3AF0E0E830D091505040E695F4
:101FD000001CCAF729D0FE2F27D0660F771F881F55
:101FE000BB1F261737074807AB07B0E809F0BB0B44
:101FF000802DBF01FF2793585F4F2AF09E3F510568
:1020000068F0B6C000C15F3FECF3983EDCF3869504
:1020100077956795B795F7959F5FC9F7880F911DDD
:102020009695879597F90895E1E0660F771F881FC9
:10203000BB1F621773078407BA0720F0621B730B7C
:10204000840BBA0BEE1F88F7E095089504D06894CE
:10205000B111D9C00895BCD088F09F5790F0B92F26
:102060009927B751A0F0D1F0660F771F881F991FED
:102070001AF0BA95C9F712C0B13081F0C3D0B1E0FF
:102080000895C0C0672F782F8827B85F39F0B93F0F
:10209000CCF3869577956795B395D9F73EF49095EF
:1020A0008095709561957F4F8F4F9F4F0895E8946D
:1020B00009C097FB3EF490958095709561957F4F90
:1020C0008F4F9F4F9923A9F0F92F96E9BB2793953E
:1020D000F695879577956795B795F111F8CFFAF44E
:1020E000BB0F11F460FF1BC06F5F7F4F8F4F9F4F7F
:1020F00016C0882311F096E911C0772321F09EE8DD
:10210000872F762F05C0662371F096E8862F70E042
:1021100060E02AF09A95660F771F881FDAF7880F1C
:102120009695879597F90895990F0008550FAA0B72
:10213000E0E8FEEF16161706E807F907C0F01216DA
:102140001306E407F50798F0621B730B840B950BDD
:1021500039F40A2661F0232B242B252B21F4089532
:102160000A2609F4A140A6958FEF811D811D0895CF
:1021700097F99F6780E870E060E008959FEF80EC3A
:10218000089500240A9416161706180609060895DD
:1021900000240A9412161306140605060895092E43
:1021A0000394000C11F4882352F0BB0F40F4BF2BB2
:1021B00011F460FF04C06F5F7F4F8F4F9F4F0895F2
:1021C00057FD9058440F551F59F05F3F71F04795E8
:1021D000880F97FB991F61F09F3F79F087950895CD
:1021E000121613061406551FF2CF4695F1DF08C0EC
:1021F000161617061806991FF1CF86957105610509
:1022000008940895E894BB2766277727CB0197F9B0
:1022100008958ADF08F48FEF08950BD0C0CFB1DFA7
:1022200028F0B6DF18F0952309F0A2CFA7CF11242C
:10223000EACFC6DFA0F3959FD1F3950F50E0551F6D
:10224000629FF001729FBB27F00DB11D639FAA270B
:10225000F00DB11DAA1F649F6627B00DA11D661F5A
:10226000829F2227B00DA11D621F739FB00DA11D7B
:10227000621F839FA00D611D221F749F3327A00D35
:10228000611D231F849F600D211D822F762F6A2FD1
:1022900011249F5750408AF0E1F088234AF0EE0F56
:1022A000FF1FBB1F661F771F881F91505040A9F763
:1022B0009E3F510570F05CCFA6CF5F3FECF3983E98
:1022C000DCF3869577956795B795F795E7959F5FCA
:1022D000C1F7FE2B880F911D9695879597F9089564
:1022E00097FB092E07260AD077FD04D02ED006D002
:1022F00000201AF4709561957F4F0895F6F7909538
:1023000081959F4F0895A1E21A2EAA1BBB1BFD01C8
:102310000DC0AA1FBB1FEE1FFF1FA217B307E407C4
:10232000F50720F0A21BB30BE40BF50B661F771F1C
:10233000881F991F1A9469F76095709580959095FC
:102340009B01AC01BD01CF010895AA1BBB1B51E14C
:1023500007C0AA1FBB1FA617B70710F0A61BB70B15
:10236000881F991F5A95A9F780959095BC01CD01BA
:102370000895EE0FFF1F0590F491E02D0994E19967
:10238000FECF9FBB8EBBE09A99278DB30895262F71
:10239000E199FECF9FBB8EBB2DBB0FB6F894E29A9E
:0C23A000E19A0FBE01960895F894FFCF5B
:1023AC004C3A0020523A0053657420746F20003F61
:1023BC000053706565643A200050204761696E3A9D
:1023CC00200044204761696E3A200054687265739E
:1023DC00680020002E0001320035003B003800233D
:1023EC000062006500310034003A003700220061C1
:1023FC0000640030003300390036002100200063F7
:10240C000001FF1800190026002700050004000138
:10241C00000000000000006F0100000000E003332A
:10242C000295037A03AF03010204081020408020B8
:06243C00100880402000A2
:00000001FF
