:100000000C9448000C947C000C947C000C947C00B4
:100010000C947C000C947C000C947C000C947C0070
:100020000C947C000C949E0D0C94470C0C946D0D5C
:100030000C94DA0C0C940B0D0C94160C0C94A90C6B
:100040000C9406090C947C000C9486030C94150403
:100050000C947C000C947C000C947C000C947C0030
:100060000C943C0D0C94620E0C94CF0D0C94000E6D
:100070000C94310E0C94780C0C9457030C94CE0312
:100080000C947C000C947C000C947C003D05640571
:1000900011241FBECFEFD0E1DEBFCDBF88E483BF08
:1000A00084E00E94740A12BE87B7816087BF78948B
:1000B00011E0A0E0B1E0E8E0F5E200E00BBF02C033
:1000C00007900D92A639B107D9F712E0A6E9B1E081
:1000D00001C01D92AC39B107E1F710E0C0E9D0E0F2
:1000E00004C02297FE010E946912CC38D107C9F7DB
:1000F0000E94930E0C9482120C94000085E060E044
:1001000070E00E945F0B84E060E070E00E945F0B93
:1001100081E060E070E00E945F0B80E060E070E0F2
:100120000E945F0B08950F931F93CF93DF93EB0112
:100130008A01CC0FDD1F57FD0CC0FE01EC59FE4FAC
:10014000808161E00E94EA09C459DE4F8881B801CC
:100150000EC0FE01EC59FE4F808160E00E94EA096A
:10016000C459DE4F66277727601B710B88810E9478
:100170005F0BDF91CF911F910F9108951F93CF9344
:10018000DF93C0E0D0E0FE01EC59FE4F1081812FDB
:1001900061E00E94A109812F61E00E94EA09FE014D
:1001A000E459FE4F808160E070E00E945F0B229670
:1001B000C830D10541F7DF91CF911F910895FC011F
:1001C00010828AE090E0938382830895CF93DF9337
:1001D000EC01882777FD8095982F0E94071120E079
:1001E00030E044E353E40E946C1020E030E040EF44
:1001F00051E40E94BB1120E030E040E251E40E9453
:1002000004100E94D910CB016A30710510F48AE005
:1002100090E08932910510F088E290E09B838A8318
:10022000DF91CF910895E0913401E7FD15C0FF27DC
:10023000E7FDF095EE0FFF1FEA56FE4F0190F081AB
:10024000E02D818160E00E94EA0906C02F5F819164
:100250009191892B69F00EC0209134012F5FE22F1C
:10026000FF27E7FDF0952150EE0FFF1FEA56FE4FE6
:10027000273064F320933401E0913401FF27E7FD38
:10028000F095EE0FFF1FEA56FE4F0190F081E02D32
:10029000309761F48FEF8093340124EF31E0809147
:1002A000A7019091A801281B390B12C0818161E040
:1002B0000E94EA09E0913401FF27E7FDF095EE0F77
:1002C000FF1FEA56FE4F0190F081E02D228133811D
:1002D00083B5820F83BD8091A7019091A801820F01
:1002E000931F9093A8018093A701845F914020F011
:1002F0001092A8011092A70108950E948C0A87B756
:100300008F7787BF85E00E94870A89E063E171E00B
:100310000E94A80A83B58C5083BD87B7806887BFC9
:100320001092A8011092A7018FEF809334010895D5
:10033000CF93DF93EC018091A601893010F080E02B
:100340003DC06983862F61E00E94A109E881F0E049
:10035000EE0FFF1FEA56FE4F80819181C817D90723
:1003600061F14091A601442341F4E6E9F1E01192E4
:10037000119281E0E63AF807D1F7E6E9F1E020E0F2
:1003800030E080819181892B61F4F901EE0FFF1F2C
:10039000EA56FE4FD183C08328834F5F4093A60166
:1003A00006C02F5F3F4F32962830310551F78091BC
:1003B000A601813011F40E947D0181E0DF91CF918F
:1003C0000895CF93DF93EC018A8160E00E94EA09EF
:1003D0008D8160E00E941A0A8D8160E00E943C0AD3
:1003E0008B8161E00E94EA098C8161E00E94EA0948
:1003F0000000000010C08C8160E00E94EA0900004B
:100400000000000000008C8161E00E94EA09000009
:100410000000000000008D810E94310A87FDEBCFB3
:100420008C8160E00E94EA09DF91CF910895FF92EC
:100430000F931F938C01F62E0E94E101F801828137
:1004400061E00E94EA09F801838160E00E94EA0904
:10045000F801848161E00E94EA09F801858161E088
:100460000E941A0AF80185816F2D0E943C0A000043
:10047000000000000000F801848160E00E94EA09A9
:10048000F801858160E00E941A0AF80185816FEF0A
:100490000E943C0A1F910F91FF900895EF92FF92E6
:1004A0000F931F93CF93DF937C01042F6115710588
:1004B00051F0EB0110E005C0C70169910E941702DD
:1004C0001F5F1017C8F3DF91CF911F910F91FF901D
:1004D000EF900895DF93CF930F92CDB7DEB7698386
:1004E000BE016F5F7F4F41E00E944E020F90CF919F
:1004F000DF910895FF920F931F938C01F62E0E94B7
:10050000E101F801828160E00E94EA09F80183813B
:1005100060E00E94EA09F801848161E00E94EA0932
:10052000F801858161E00E941A0AF80185816F2D2A
:100530000E943C0A0000000000000000F8018481D5
:1005400060E00E94EA09F801858160E00E941A0AD1
:10055000F80185816FEF0E943C0A1F910F91FF9077
:100560000895423031F0433031F0413029F4605C7D
:1005700003C06C5E01C06C5A60680E947A020895E4
:1005800062E00E947A02089561E00E947A02089572
:100590000F931F938C01FC01828160E00E94EA09A5
:1005A000F801838160E00E94EA09F801848160E03B
:1005B0000E94EA09F801828161E00E94A109F80124
:1005C000838161E00E94A109F801848161E00E94B9
:1005D000A109F801858160E00E941A0AF80185816D
:1005E0006FEF0E943C0A1F910F9108950F931F9384
:1005F0008C010E94C802C80168E30E947A02C80107
:1006000061E00E947A02C80166E00E947A02C80195
:100610006CE00E947A02C80162E00E947A02C8017E
:1006200060E80E947A021F910F9108950F93FC01D8
:1006300088E791E0918380836283438324830583E9
:10064000CF010E94F6020F910895CB01642F0E9402
:1006500075120895CB010E946D120895FC0124814A
:100660003581C9010895DC01FC0182819381809765
:1006700014F080E00895FD018281938101969383B7
:10068000828384819581E80FF91F60870196FD01BF
:10069000958384832D913C9111978217930714F4CD
:1006A00081E00895FD011582148281E008951F9272
:1006B0000F920FB60F920BB60F9211242F933F9308
:1006C0004F935F936F937F938F939F93AF93BF935A
:1006D000EF93FF93E0914002F0914102608188EF37
:1006E00091E00E943303FF91EF91BF91AF919F91F1
:1006F0008F917F916F915F914F913F912F910F90CB
:100700000BBE0F900FBE0F901F9018951F920F9267
:100710000FB60F920BB60F9211242F933F934F9366
:100720005F936F937F938F939F93AF93BF93EF9359
:10073000FF93E091F401F091F50160818CEA91E082
:100740000E943303FF91EF91BF91AF919F918F91E1
:100750007F916F915F914F913F912F910F900BBEC1
:100760000F900FBE0F901F901895DC01FC01828145
:10077000938101979383828386819781E80FF91F84
:1007800040850196FD01978386832D913C918217C8
:10079000930714F017821682842F08951F920F92E8
:1007A0000FB60F920BB60F9211240F931F932F9336
:1007B0003F934F935F936F937F938F939F93AF93E9
:1007C000BF93EF93FF93809122029091230218161A
:1007D000190654F4009140021091410280E292E027
:1007E0000E94B503F8018083809122029091230238
:1007F000892B31F4E0913E02F0913F0288E9808339
:10080000FF91EF91BF91AF919F918F917F916F91E8
:100810005F914F913F912F911F910F910F900BBEC0
:100820000F900FBE0F901F9018951F920F920FB64A
:100830000F920BB60F9211240F931F932F933F9398
:100840004F935F936F937F938F939F93AF93BF93D8
:10085000EF93FF938091D6019091D7011816190656
:1008600054F40091F4011091F50184ED91E00E949F
:10087000B503F80180838091D6019091D701892B2F
:1008800031F4E091F201F091F30188E98083FF9166
:10089000EF91BF91AF919F918F917F916F915F91F8
:1008A0004F913F912F911F910F910F900BBE0F9081
:1008B0000FBE0F901F901895DC01FC01828193817F
:1008C00001979383828386819781E80FF91F408582
:1008D0000196FD01978386832D913C9182179307A2
:1008E00014F017821682842F0895FC01848195816B
:1008F000892B19F42FEF3FEF06C0CF0102960E941B
:100900005C04282F30E0C9010895CF93DF93EC01F8
:10091000EE81FF81E80FF91F8085DF91CF91089567
:10092000FC0184819581892B19F42FEF3FEF06C0DC
:10093000CF0102960E948504282F30E0C901089556
:10094000FC0113821282828193819783868395832F
:100950008483089502960E94A0040895FC0180E219
:1009600090E091838083CF010E94A0040895DC0170
:10097000FC0182819381409714F080E00895FD018D
:100980008281938101969383828384819581E80F8C
:10099000F91F60870196FD01958384832D913C9119
:1009A00011978217930714F481E00895FD011582D1
:1009B000148281E00895CF93DF93EC018CA59DA56F
:1009C0004097E4F7F894CE018A960E94B704C85B7A
:1009D000DF4FE881F9818081806280837894DF91A4
:1009E000CF910895FC0113821282828193819783B3
:1009F0008683958384830895FC0180E190E0918350
:100A00008083CF010E94F20408956F927F928F92AB
:100A10009F92AF92BF92CF92DF92EF92FF920F938D
:100A20001F936C015B014A013901FC018EE791E0E3
:100A300081939193CF010E94AE04C6018A960E94D1
:100A4000FC0482E490E0C80ED91EF601A192B19296
:100A5000819291926192719201931193F182E0825D
:100A60001F910F91FF90EF90DF90CF90BF90AF90CC
:100A70009F908F907F906F900895EF92FF920F93C9
:100A80001F938AEA91E060E970E049E250E02BE2CE
:100A900030E00AE210E0FCE2EF2EF12C0E940505A6
:100AA00086EF91E068E970E049E950E02BE930E039
:100AB0000AE910E0ECE9EE2EF12C0E9405051F91E9
:100AC0000F91FF90EF9008950F931F9382E492E0AF
:100AD0006AE14BE12CE102E00E94160388E492E017
:100AE0000E94BE008AE492E00E94DF008EE492E061
:100AF0000E94DF0082E592E00E94DF0009EA11E037
:100B0000C80160E070E00E942A0390E0880F991FFE
:100B1000880F991FAA2797FDA095BA2FBC01CD0178
:100B20000E940711609360027093610280936202D9
:100B300090936302C80161E070E00E942A0390E094
:100B4000A0E0B0E0BC01CD010E94051160936402F9
:100B5000709365028093660290936702C80162E019
:100B600070E00E942A0390E0A0E0B0E0BC01CD015B
:100B70000E940511609368027093690280936A0273
:100B800090936B02C80163E070E00E942A0390E03A
:100B9000A0E0B0E0BC01CD010E94051160936C02A1
:100BA00070936D0280936E0290936F021F910F916C
:100BB0000895AF92BF92CF92DF92EF92FF920F9380
:100BC0001F9380915E02882319F08FEF9FEF02C080
:100BD00081E090E090935D0280935C02E0905C0283
:100BE000F0905D02B701882777FD8095982F0E94CD
:100BF0000711209164023091650240916602509184
:100C000067020E94BB115B016C0180915A029091B6
:100C10005B02E81AF90A0027F7FC0095102FC801BB
:100C2000B7010E940711209168023091690240913A
:100C30006A0250916B020E94BB119B01AC01C6017C
:100C4000B5010E9404107B018C012091600230915B
:100C5000610240916202509163020E9404100E945E
:100C6000D4109B01AC0188E492E061E070E0A9013E
:100C70000E94930060916002709161028091620213
:100C800090916302A80197010E9403100E94D41062
:100C90009B01AC0188E492E063E070E0A9010E944E
:100CA000930080915C0290915D0290935B0280932F
:100CB0005A028091700290917102892B09F060C0F4
:100CC00082E492E00E94C40282E492E00E94C002A8
:100CD00082E492E060E071E00E94AC0E6091560206
:100CE0007091570282E492E00E94740F82E492E0D5
:100CF00063E071E00E94AC0E60915802709159025D
:100D000082E492E00E94740F82E492E060E041E0AD
:100D10000E94B10282E492E060E071E00E94AC0EB9
:100D2000C801B7010E94D4107B018C016091600260
:100D30007091610280916202909163020E94D410CE
:100D40009B01AC012E193F0982E492E0B9010E9497
:100D5000740F82E492E063E071E00E94AC0E609157
:100D600060027091610280916202909163020E9420
:100D7000D410E60EF71E82E492E0B7010E94740FD1
:100D80001F910F91FF90EF90DF90CF90BF90AF90A9
:100D90000895CF93DF93EC0181E30E94D10988236A
:100DA00011F090E00EC0BE01882777FD8095982F46
:100DB0000E947B0981E30E94D10990E0882309F415
:100DC00091E0892FDF91CF910895CF93DF9388E44D
:100DD00092E00E947E0087E00E94500A64E070E08A
:100DE0000E941E12EB0182E492E00E94C40282E49F
:100DF00092E060E041E00E94B10282E492E067E0AC
:100E000071E00E94AC0E82E492E0BE010E94740F79
:100E100082E492E06FE071E00E94AC0E82E492E026
:100E20000E94C00286E00E94500A60E071E00E94C9
:100E30001E126130710509F446C0623071051CF460
:100E4000672B31F0A2C06230710509F09EC06CC002
:100E500082E492E061E171E00E94AC0E4091600298
:100E600050916102609162027091630282E492E0AB
:100E70000E94FF0F80E590E00E94C906882309F4D4
:100E8000D7C0CC0FDD1FCC0FDD1FBE01882777FD3B
:100E90008095982F0E940711609360027093610201
:100EA000809362029093630220E030E040E85EE3CA
:100EB0000E94BB110E94D9109B01AC0189EA91E00C
:100EC00060E070E0B2C082E492E069E171E00E940B
:100ED000AC0E40916402509165026091660270917F
:100EE000670282E492E00E94FF0F80E590E00E949A
:100EF000C906882309F49CC0BE01882777FD809528
:100F0000982F0E940711609364027093650280938A
:100F10006602909367020E94D9109B01AC0189EA96
:100F200091E061E070E081C082E492E062E271E011
:100F30000E94AC0E409168025091690260916A0271
:100F400070916B0282E492E00E94FF0F80E590E0D6
:100F50000E94C906882309F46BC0BE01882777FD6B
:100F60008095982F0E940711609368027093690220
:100F700080936A0290936B020E94D9109B01AC018E
:100F800089EA91E062E070E050C082E492E06BE2B6
:100F900071E00E94AC0E60916C0270916D028091C4
:100FA0006E0290916F020E94D4109B01AC0182E40A
:100FB00092E0B9010E94740F82E492E060E371E074
:100FC0000E94AC0E609156027091570282E492E04A
:100FD0000E94740F82E492E060E371E00E94AC0E24
:100FE000609158027091590282E492E00E94740F5D
:100FF00080E590E00E94C9068823D1F0BE018827D1
:1010000077FD8095982F0E94071160936C02709372
:101010006D0280936E0290936F020E94D9109B0123
:10102000AC0189EA91E063E070E0422F0E94250361
:101030006EE170E080E090E00E947B09DF91CF914B
:101040000895CF93DF93EC0182E30E94D1098823B6
:1010500011F090E00EC0BE01882777FD8095982F93
:101060000E947B0982E30E94D10990E0882309F461
:1010700091E0892FDF91CF910895DF92EF92FF9257
:101080000F931F93CF93DF9380E00E94500A9093B9
:1010900057028093560281E00E94500AEC0190931F
:1010A000590280935802E0906C02F0906D0200911A
:1010B0006E0210916F02DD2460915602709157020A
:1010C000882777FD8095982F0E940711A801970126
:1010D0000E94B711181614F4DD24D394D0925E0246
:1010E00010925F02BE01882777FD8095982F0E949D
:1010F0000711A80197010E94B71118161CF481E08E
:1011000080935F0211E0D12687E06D2D0E94EA09ED
:1011100060915F02612785E00E94EA0980915E028A
:10112000882311F061E002C060915F0286E00E94B6
:10113000EA0980E590E00E94C906882319F081E061
:101140008093350180E590E00E942108882311F00A
:101150001092350180917002909171021816190653
:101160002CF0809136019091370101C00197909346
:10117000710280937002DF91CF911F910F91FF90C8
:10118000EF90DF900895CF93DF9387E00E94500A9D
:10119000EC01853B910514F0C4EBD0E08AE492E0C9
:1011A000BE010E94E6008EE492E0BE010E94E600CD
:1011B00082E592E0BE010E94E6000E943D08809117
:1011C0003501882319F00E94E50602C00E94D90566
:1011D000DF91CF91089580E060E00E941A0A81E0DB
:1011E00060E00E941A0A8AE492E063E270E00E94E2
:1011F00098018EE492E06FE170E00E94980182E530
:1012000092E062E270E00E94980108951F920F92AE
:101210000FB60F9211242F933F938F939F93AF9309
:10122000BF938091760290917702A0917802B0915D
:10123000790230917A020196A11DB11D232F2D5FF5
:101240002D3720F02D570196A11DB11D20937A0254
:101250008093760290937702A0937802B0937902FC
:101260008091720290917302A0917402B091750204
:101270000196A11DB11D8093720290937302A093F9
:101280007402B0937502BF91AF919F918F913F917E
:101290002F910F900FBE0F901F9018956FB7F89475
:1012A0002091720230917302409174025091750244
:1012B00082B790E0A0E0B0E006B600FE09C08F3F24
:1012C0009105A105B10521F02F5F3F4F4F4F5F4FB3
:1012D0006FBF542F432F322F2227280F391F4A1F49
:1012E0005B1F82E0220F331F441F551F8A95D1F7E1
:1012F000B901CA010895EF92FF920F931F93CF9304
:10130000DF937B018C010E944E09EB010EC00E940D
:101310004E096C1B7D0B685E7340C8F30894E108AE
:10132000F10801091109C851DC4FE114F10401056C
:10133000110569F7DF91CF911F910F91FF90EF9009
:101340000895E82FE695E695E695A82FB0E0613080
:1013500099F42FB7F894F0E0EE0FFF1FEA5BFE4F11
:101360000190F081E02D9081A770B070A857BE4F1A
:101370008C91982B908313C02FB7F894F0E0EE0F68
:10138000FF1FEA5BFE4F0190F081E02D9081A77076
:10139000B070A857BE4F8C918095892380832FBF52
:1013A0000895A82FE82FE695E695E695F0E0EE0F74
:1013B000FF1FEC5AFE4F0190F081E02DE081B0E07C
:1013C000A770B070A857BE4F8C91E82309F0E1E0F8
:1013D0008E2F0895E82FE695E695E695A82FB0E0C4
:1013E000613099F42FB7F894F0E0EE0FFF1FE85C3E
:1013F000FE4F0190F081E02D9081A770B070A8574A
:10140000BE4F8C91982B908313C02FB7F894F0E0C7
:10141000EE0FFF1FE85CFE4F0190F081E02D908100
:10142000A770B070A857BE4F8C9180958923808398
:101430002FBF0895E82FF0E0613051F4EE0FFF1F49
:10144000EA5BFE4F0190F081E02D8FEF80830895DD
:10145000EE0FFF1FEA5BFE4F0190F081E02D10823E
:101460000895E82FF0E0EE0FFF1FEC5AFE4F0190B9
:10147000F081E02D80810895E82FF0E0EE0FFF1F4E
:10148000E85CFE4F0190F081E02D6083089510929A
:1014900061001092620080E487B987EE86B90895F2
:1014A0001F93182F80916201813021F40E94470A16
:1014B0001092620180916301181721F4349A349BD1
:1014C000FECF0DC01093630187B11770807E812B12
:1014D00087B9349A349BFECF349A349BFECF24B123
:1014E00035B1C9011F91089593B7987F982B93BF89
:1014F00008959EB5987F982B9EBD089583E00E9425
:10150000790A1DBC1CBC87B7846087BF089595B558
:10151000987F982B95BD089582E00E94870A14BC9D
:1015200087B7806487BF0895EAE8F0E09081987FEC
:10153000982B9083089583E00E94940A109289006A
:1015400010928800EDE7F0E0808184608083089548
:10155000803140F4E82FF0E0EE0FFF1FE458FD4F1C
:10156000718360830895893031F48FB582608FBDB7
:101570008FB58E7F0AC08A3019F48FB5826002C0A1
:101580008FB58D7F8FBD8FB581608FBD1BBC1ABCA1
:1015900019BC18BC109279001092780008958FB58C
:1015A00080688FBD8FB58F7B8FBD08958FB58062AA
:1015B0008FBD8FB58F7E8FBD08958FB588608FBD2D
:1015C0008FB58B7F8FBD08959BBD8ABD089599BD52
:1015D00088BD0895909379008093780008958930AC
:1015E00049F480918B00826080938B0080918B0006
:1015F0008E7F0EC08A3021F480918B00826003C000
:1016000080918B008D7F80938B0080918B00816017
:1016100080938B00109287001092860010928500B4
:101620001092840010928300109282000895EBE8DB
:10163000F0E080818068808380818F7B8083089543
:10164000EBE8F0E080818062808380818F7E808300
:101650000895EBE8F0E080818860808380818B7F53
:1016600080830895853019F40E94CF0A089584304C
:1016700019F40E94D60A0895833019F40E94DD0AF5
:101680000895823019F40E94170B0895813019F4DF
:101690000E94200B0895882311F40E94290B0895BD
:1016A000909387008093860008959093850080939F
:1016B0008400089590938300809382000895EF92B0
:1016C000FF921F93CF93DF93182F7B018D31B0F0E2
:1016D0008F3111F413E014C08E3111F414E010C0F6
:1016E0008D3109F49BC0853211F410E03DC0843285
:1016F00011F411E039C0833219F48EC08330A0F1A7
:1017000080917B0286FD0BC00E947E0A78948AE05D
:101710000E94B30A80917B02806480937B02809157
:101720007B02C12FD0E090E0012E02C095958795F5
:101730000A94E2F780FD4CC087B3FE01E057FE4FEC
:101740009081892B87BB812F0E94320B20917B02D5
:1017500081E090E0012E02C0880F991F0A94E2F701
:10176000282B20937B0234C080917B0287FD0BC025
:101770000E949B0A78948AE00E94EF0A80917B0283
:10178000806880937B0280917B02C12FD0E090E043
:10179000012E02C0959587950A94E2F780FD24C03A
:1017A00082B1FE01E057FE4F9081892B82B9812FD3
:1017B0000E94320B20917B0281E090E0012E02C05A
:1017C000880F991F0A94E2F7282B20937B020CC004
:1017D000153021F4C7010E94E40A22C0143021F41C
:1017E000C7010E94E70A1CC0133021F4C7010E9400
:1017F000EA0A16C0123021F4C7010E94500B10C033
:10180000113021F4C7010E94550B0AC0112341F485
:10181000C7010E945A0B04C012E0A6CF15E070CF9A
:10182000DF91CF911F91FF90EF9008951F920F923B
:101830000FB60F920BB60F9211242F933F934F9335
:101840005F936F937F938F939F93AF93BF93EF9328
:10185000FF938091820290918302892B29F0E0917D
:101860008202F09183020995FF91EF91BF91AF91B0
:101870009F918F917F916F915F914F913F912F91A8
:101880000F900BBE0F900FBE0F901F9018951F92D8
:101890000F920FB60F920BB60F9211242F933F9316
:1018A0004F935F936F937F938F939F93AF93BF9368
:1018B000EF93FF9380918C0290918D02892B29F0F8
:1018C000E0918C02F0918D020995FF91EF91BF910B
:1018D000AF919F918F917F916F915F914F913F91C8
:1018E0002F910F900BBE0F900FBE0F901F90189569
:1018F0001F920F920FB60F920BB60F9211242F93D7
:101900003F934F935F936F937F938F939F93AF9387
:10191000BF93EF93FF938091920290919302892B52
:1019200029F0E0919202F09193020995FF91EF91D5
:10193000BF91AF919F918F917F916F915F914F91E7
:101940003F912F910F900BBE0F900FBE0F901F90E5
:1019500018951F920F920FB60F920BB60F9211248B
:101960002F933F934F935F936F937F938F939F93A7
:10197000AF93BF93EF93FF9380917E0290917F028C
:10198000892B29F0E0917E02F0917F020995FF9169
:10199000EF91BF91AF919F918F917F916F915F91E7
:1019A0004F913F912F910F900BBE0F900FBE0F9054
:1019B0001F9018951F920F920FB60F920BB60F92B1
:1019C00011242F933F934F935F936F937F938F9344
:1019D0009F93AF93BF93EF93FF9380918402909175
:1019E0008502892B29F0E0918402F0918502099506
:1019F000FF91EF91BF91AF919F918F917F916F91E7
:101A00005F914F913F912F910F900BBE0F900FBEA2
:101A10000F901F9018951F920F920FB60F920BB652
:101A20000F9211242F933F934F935F936F937F9364
:101A30008F939F93AF93BF93EF93FF938091860211
:101A400090918702892B29F0E0918602F09187021C
:101A50000995FF91EF91BF91AF919F918F917F91E8
:101A60006F915F914F913F912F910F900BBE0F900F
:101A70000FBE0F901F9018951F920F920FB60F92E6
:101A80000BB60F9211242F933F934F935F936F9355
:101A90007F938F939F93AF93BF93EF93FF93809127
:101AA000880290918902892B29F0E0918802F091B7
:101AB00089020995FF91EF91BF91AF919F918F910D
:101AC0007F916F915F914F913F912F910F900BBE3E
:101AD0000F900FBE0F901F9018951F920F920FB688
:101AE0000F920BB60F9211242F933F934F935F9356
:101AF0006F937F938F939F93AF93BF93EF93FF93D6
:101B000080918A0290918B02892B29F0E0918A02C0
:101B1000F0918B020995FF91EF91BF91AF919F9149
:101B20008F917F916F915F914F913F912F910F9086
:101B30000BBE0F900FBE0F901F9018951F920F9223
:101B40000FB60F920BB60F9211242F933F934F9322
:101B50005F936F937F938F939F93AF93BF93EF9315
:101B6000FF9380918E0290918F02892B29F0E09152
:101B70008E02F0918F020995FF91EF91BF91AF9185
:101B80009F918F917F916F915F914F913F912F9195
:101B90000F900BBE0F900FBE0F901F9018951F92C5
:101BA0000F920FB60F920BB60F9211242F933F9303
:101BB0004F935F936F937F938F939F93AF93BF9355
:101BC000EF93FF938091940290919502892B29F0D5
:101BD000E0919402F09195020995FF91EF91BF91E8
:101BE000AF919F918F917F916F915F914F913F91B5
:101BF0002F910F900BBE0F900FBE0F901F90189556
:101C00001F920F920FB60F920BB60F9211242F93C3
:101C10003F934F935F936F937F938F939F93AF9374
:101C2000BF93EF93FF938091960290919702892B37
:101C300029F0E0919602F09197020995FF91EF91BA
:101C4000BF91AF919F918F917F916F915F914F91D4
:101C50003F912F910F900BBE0F900FBE0F901F90D2
:101C600018951F920F920FB60F920BB60F92112478
:101C70002F933F934F935F936F937F938F939F9394
:101C8000AF93BF93EF93FF93809198029091990245
:101C9000892B29F0E0919802F09199020995FF9122
:101CA000EF91BF91AF919F918F917F916F915F91D4
:101CB0004F913F912F910F900BBE0F900FBE0F9041
:101CC0001F9018951F920F920FB60F920BB60F929E
:101CD00011242F933F934F935F936F937F938F9331
:101CE0009F93AF93BF93EF93FF9380919A0290914C
:101CF0009B02892B29F0E0919A02F0919B020995B1
:101D0000FF91EF91BF91AF919F918F917F916F91D3
:101D10005F914F913F912F910F900BBE0F900FBE8F
:101D20000F901F90189583E061E00E941A0A84E0EA
:101D300061E00E941A0A78940E94EB080E94C3088E
:101D4000FDCFDC01ED91FC910190F081E02D099532
:101D500008950E94A10E08950F931F93CF93DF93D0
:101D60008C01EB0104C02196C8010E94A90E688174
:101D70006623C9F7DF91CF911F910F9108952F929C
:101D80003F924F925F926F927F928F929F92AF920B
:101D9000BF92CF92DF92EF92FF920F931F93DF9348
:101DA000CF93CDB7DEB7A0970FB6F894DEBF0FBEC6
:101DB000CDBF1C016A017B0141155105610571050B
:101DC00021F460E30E94A90E4FC088249924540195
:101DD000422E55246624772401E010E00C0F1D1FCD
:101DE000080D191DC701B601A30192010E9431120D
:101DF000F80160830894811C911CA11CB11CC701CF
:101E0000B601A30192010E943112C901DA016C01ED
:101E10007D01C114D104E104F104F1F681E0E82E62
:101E2000F12CEC0EFD1EE80CF91C3E010894611C1F
:101E3000711CD501C4010197A109B1096C01C81831
:101E4000D9080FC0F601EE0DFF1D60816A3010F455
:101E5000605D01C0695CC1010E94A90E0894E1089F
:101E6000F1086E147F0471F7A0960FB6F894DEBFE8
:101E70000FBECDBFCF91DF911F910F91FF90EF90DB
:101E8000DF90CF90BF90AF909F908F907F906F909A
:101E90005F904F903F902F9008952AE00E94BF0ED0
:101EA0000895EF92FF920F931F93CF93DF93EC016E
:101EB0007A018B0177FF0BC06DE20E94A90E10958D
:101EC0000095F094E094E11CF11C011D111DCE0160
:101ED000B801A7012AE00E94BF0EDF91CF911F91A8
:101EE0000F91FF90EF900895AB01662757FD609525
:101EF000762F0E94510F08959F92AF92BF92CF927A
:101F0000DF92EF92FF920F931F93CF93DF93EC0139
:101F10007A018B01922ECB01BA0120E030E040E043
:101F200050E00E946810882344F4CE016DE20E94C4
:101F3000A90E17FB109517F9109520E030E040E04E
:101F40005FE3AA240BC0CA01B90120E030E040E2FF
:101F500051E40E946C109B01AC01A394A91498F366
:101F6000C801B7010E9404105B016C010E94D910E6
:101F70007B018C01CE01B801A7010E944D0F992071
:101F800029F0CE0162E371E00E94AC0EC801B701F6
:101F90000E9405119B01AC01C601B5010E9403100E
:101FA00020C020E030E040E251E40E94BB115B0120
:101FB0006C010E94D4109B01AC017B01CE01B901E0
:101FC0000E94740F0027F7FC0095102FC801B7017D
:101FD0000E9407119B01AC01C601B5010E940310CC
:101FE0009A949920F1F6DF91CF911F910F91FF9074
:101FF000EF90DF90CF90BF90AF909F90089522E038
:102000000E947C0F08955058BB27AA270ED075C197
:1020100066D130F06BD120F031F49F3F11F41EF403
:102020005BC10EF4E095E7FB51C1E92F77D180F356
:10203000BA17620773078407950718F071F49EF5C5
:102040008FC10EF4E0950B2EBA2FA02D0B01B90114
:1020500090010C01CA01A0011124FF27591B99F01E
:10206000593F50F4503E68F11A16F040A22F232F2A
:10207000342F4427585FF3CF469537952795A7957A
:10208000F0405395C9F77EF41F16BA0B620B730B21
:10209000840BBAF09150A1F0FF0FBB1F661F771F92
:1020A000881FC2F70EC0BA0F621F731F841F48F447
:1020B000879577956795B795F7959E3F08F0B3CFCD
:1020C0009395880F08F09927EE0F979587950895B7
:1020D000D9D008F481E008950CD00FC107D140F0A9
:1020E000FED030F021F45F3F19F0F0C0511139C13A
:1020F000F3C014D198F39923C9F35523B1F3951B79
:10210000550BBB27AA2762177307840738F09F5F18
:102110005F4F220F331F441FAA1FA9F333D00E2E87
:102120003AF0E0E830D091505040E695001CCAF7F4
:1021300029D0FE2F27D0660F771F881FBB1F2617B9
:1021400037074807AB07B0E809F0BB0B802DBF018C
:10215000FF2793585F4F2AF09E3F510568F0B6C0A5
:1021600000C15F3FECF3983EDCF386957795679569
:10217000B795F7959F5FC9F7880F911D969587953D
:1021800097F90895E1E0660F771F881FBB1F62175C
:1021900073078407BA0720F0621B730B840BBA0B1A
:1021A000EE1F88F7E095089504D06894B111D9C066
:1021B0000895BCD088F09F5790F0B92F9927B75158
:1021C000A0F0D1F0660F771F881F991F1AF0BA95FB
:1021D000C9F712C0B13081F0C3D0B1E00895C0C0DA
:1021E000672F782F8827B85F39F0B93FCCF38695F1
:1021F00077956795B395D9F73EF49095809570954E
:1022000061957F4F8F4F9F4F0895E89409C097FBCA
:102210003EF490958095709561957F4F8F4F9F4FBD
:102220009923A9F0F92F96E9BB279395F695879501
:1022300077956795B795F111F8CFFAF4BB0F11F4C4
:1022400060FF1BC06F5F7F4F8F4F9F4F16C088236B
:1022500011F096E911C0772321F09EE8872F762FA1
:1022600005C0662371F096E8862F70E060E02AF0E2
:102270009A95660F771F881FDAF7880F96958795CE
:1022800097F90895990F0008550FAA0BE0E8FEEFA3
:1022900016161706E807F907C0F012161306E4072A
:1022A000F50798F0621B730B840B950B39F40A2623
:1022B00061F0232B242B252B21F408950A2609F401
:1022C000A140A6958FEF811D811D089597F99F6705
:1022D00080E870E060E008959FEF80EC08950024AE
:1022E0000A941616170618060906089500240A947B
:1022F00012161306140605060895092E0394000C01
:1023000011F4882352F0BB0F40F4BF2B11F460FF8F
:1023100004C06F5F7F4F8F4F9F4F089557FD9058B8
:10232000440F551F59F05F3F71F04795880F97FB99
:10233000991F61F09F3F79F0879508951216130653
:102340001406551FF2CF4695F1DF08C01616170682
:102350001806991FF1CF86957105610508940895B7
:10236000E894BB2766277727CB0197F908958ADF82
:1023700008F48FEF08950BD0C0CFB1DF28F0B6DF9F
:1023800018F0952309F0A2CFA7CF1124EACFC6DF1A
:10239000A0F3959FD1F3950F50E0551F629FF00178
:1023A000729FBB27F00DB11D639FAA27F00DB11DD1
:1023B000AA1F649F6627B00DA11D661F829F22275A
:1023C000B00DA11D621F739FB00DA11D621F839FE1
:1023D000A00D611D221F749F3327A00D611D231FB7
:1023E000849F600D211D822F762F6A2F11249F5705
:1023F00050408AF0E1F088234AF0EE0FFF1FBB1F28
:10240000661F771F881F91505040A9F79E3F5105C6
:1024100070F05CCFA6CF5F3FECF3983EDCF386957F
:1024200077956795B795F795E7959F5FC1F7FE2B71
:10243000880F911D9695879597F9089597FB092E1A
:1024400007260AD077FD04D02ED006D000201AF43B
:10245000709561957F4F0895F6F7909581959F4F00
:102460000895A1E21A2EAA1BBB1BFD010DC0AA1FD5
:10247000BB1FEE1FFF1FA217B307E407F50720F0ED
:10248000A21BB30BE40BF50B661F771F881F991F68
:102490001A9469F760957095809590959B01AC01B1
:1024A000BD01CF010895AA1BBB1B51E107C0AA1FA4
:1024B000BB1FA617B70710F0A61BB70B881F991FE5
:1024C0005A95A9F780959095BC01CD010895EE0F1E
:1024D000FF1F0590F491E02D0994E199FECF9FBB79
:1024E0008EBBE09A99278DB30895262FE199FECFF0
:1024F0009FBB8EBB2DBB0FB6F894E29AE19A0FBE3C
:0825000001960895F894FFCF45
:102508004C3A0020523A0053657420746F20003F03
:102518000053706565643A200050204761696E3A3F
:10252800200044204761696E3A200054483A200050
:1025380020002E00FF01C800320035003B003800A3
:10254800230062006500310034003A0037002200A1
:10255800610064003000330039003600210020009B
:10256800630001FF18001900260027000500040079
:1025780001000000000000006A0200000000DB0407
:102588002E0390047504AA04010204081020408058
:0625980020100880402025
:00000001FF
