:100000000C9449000C947D000C947D000C947D00B0
:100010000C947D000C947D000C947D000C947D006C
:100020000C947D000C940D0D0C94B60B0C94DC0C10
:100030000C94490C0C947A0C0C94850B0C94180CB1
:100040000C9475080C947D000C94D6030C946504F4
:100050000C947D000C947D000C947D000C947D002C
:100060000C94AB0C0C94D10D0C943E0D0C946F0DB4
:100070000C94A00D0C94E70B0C94A7030C941E0495
:100080000C947D000C947D000C947D008D05380748
:10009000310711241FBECFEFD0E1DEBFCDBF88E412
:1000A00083BF84E00E94E30912BE87B7816087BFE7
:1000B000789411E0A0E0B1E0E4EFF2E200E00BBFE1
:1000C00002C007900D92A03CB107D9F713E0A0EC55
:1000D000B1E001C01D92A835B107E1F710E0C0E919
:1000E000D0E004C02297FE010E943710CC38D1071F
:1000F000C9F70E94020E0C946D110C94000085E06B
:1001000060E070E00E94CE0A84E060E070E00E944F
:10011000CE0A81E060E070E00E94CE0A80E060E0FC
:1001200070E00E94CE0A08951F93CF93DF93C0E042
:10013000D0E0FE01EA57FE4F1081812F61E00E945E
:100140001009812F61E00E945909FE01E257FE4F1C
:10015000808160E070E00E94CE0A2296C830D1050E
:1001600041F7DF91CF911F910895FC0110828AE041
:1001700090E0938382830895E0915401E7FD15C0D8
:10018000FF27E7FDF095EE0FFF1FE054FE4F0190B3
:10019000F081E02D818160E00E94590906C02F5F47
:1001A00081919191892B69F00EC0209154012F5FAC
:1001B000E22FFF27E7FDF0952150EE0FFF1FE054DF
:1001C000FE4F273064F320935401E0915401FF2740
:1001D000E7FDF095EE0FFF1FE054FE4F0190F08118
:1001E000E02D309761F48FEF8093540124EF31E0DC
:1001F0008091D1019091D201281B390B12C08181CD
:1002000061E00E945909E0915401FF27E7FDF09554
:10021000EE0FFF1FE054FE4F0190F081E02D228190
:10022000338183B5820F83BD8091D1019091D2013A
:10023000820F931F9093D2018093D101845F9140EC
:1002400020F01092D2011092D10108950E94FB0972
:1002500087B78F7787BF85E00E94F60989E06CEB4E
:1002600070E00E94170A83B58C5083BD87B7806801
:1002700087BF1092D2011092D1018FEF8093540169
:100280000895CF93DF93EC018091D001893010F075
:1002900080E03DC06983862F61E00E941009E881FB
:1002A000F0E0EE0FFF1FE054FE4F80819181C817F0
:1002B000D90761F14091D001442341F4E0ECF1E031
:1002C0001192119281E0E03DF807D1F7E0ECF1E006
:1002D00020E030E080819181892B61F4F901EE0FFB
:1002E000FF1FE054FE4FD183C08328834F5F4093AC
:1002F000D00106C02F5F3F4F32962830310551F7AD
:100300008091D001813011F40E94260181E0DF91BB
:10031000CF910895CF93DF93EC018A8160E00E9432
:1003200059098D8160E00E9489098D8160E00E94F9
:10033000AB098B8161E00E9459098C8161E00E94C8
:1003400059090000000010C08C8160E00E9459092A
:1003500000000000000000008C8161E00E9459094B
:1003600000000000000000008D810E94A00987FDB0
:10037000EBCF8C8160E00E945909DF91CF91089505
:10038000FF920F931F938C01F62E0E948A01F801B1
:10039000828161E00E945909F801838160E00E9436
:1003A0005909F801848161E00E945909F8018581A9
:1003B00061E00E948909F80185816F2D0E94AB09D7
:1003C0000000000000000000F801848160E00E944D
:1003D0005909F801858160E00E948909F801858149
:1003E0006FEF0E94AB091F910F91FF900895EF925C
:1003F000FF920F931F93CF93DF937C01042F61151E
:10040000710551F0EB0110E005C0C70169910E9430
:10041000C0011F5F1017C8F3DF91CF911F910F919B
:10042000FF90EF900895DF93CF930F92CDB7DEB793
:100430006983BE016F5F7F4F41E00E94F7010F901B
:10044000CF91DF910895FF920F931F938C01F62EA9
:100450000E948A01F801828160E00E945909F80136
:10046000838160E00E945909F801848161E00E9463
:100470005909F801858161E00E948909F8018581A7
:100480006F2D0E94AB090000000000000000F80181
:10049000848160E00E945909F801858160E00E9432
:1004A0008909F80185816FEF0E94AB091F910F91B7
:1004B000FF900895423031F0433031F0413029F45B
:1004C000605C03C06C5E01C06C5A60680E942302CD
:1004D000089562E00E942302089561E00E942302D1
:1004E00008950F931F938C01FC01828160E00E94AC
:1004F0005909F801838160E00E945909F80184815B
:1005000060E00E945909F801828161E00E941009AF
:10051000F801838161E00E941009F801848161E0A3
:100520000E941009F801858160E00E948909F801A4
:1005300085816FEF0E94AB091F910F9108950F9372
:100540001F938C010E947102C80168E30E9423027C
:10055000C80161E00E942302C80166E00E942302F4
:10056000C8016CE00E942302C80162E00E942302DD
:10057000C80160E80E9423021F910F9108950F9314
:10058000FC018AE991E09183808362834383248321
:100590000583CF010E949F020F910895FC0182857F
:1005A000938508950F931F938C016E5F7F4F0E9478
:1005B000A80FC8011F910F910895FC01CB0123E002
:1005C000693E720714F088EE93E09387828720815A
:1005D000318164E070E00E94EC0F462F83ED91E0E2
:1005E000B9010E947503089502960E94760F08953E
:1005F0000F931F938C01FC017183608383ED91E065
:100600000E947A0390E0880F991F880F991FF801C4
:10061000938782871F910F910895CF93DF93EC0109
:1006200080EA91E0998388838A819B81009711F009
:100630000E94110F1D821C821F821E82DF91CF91AA
:100640000895AF92BF92CF92DF92EF92FF920F93F5
:100650001F93DF93CF93CDB7DEB728970FB6F894EB
:10066000DEBF0FBECDBF7C016B015A01029660E078
:1006700071E00E94C80F8E010F5F1F4FC801B601C5
:100680000E94A80FC701B8010E94F402C8010E948D
:100690000D03C701B5010E94F80228960FB6F89421
:1006A000DEBF0FBECDBFCF91DF911F910F91FF90A5
:1006B000EF90DF90CF90BF90AF900895CF93DF93EE
:1006C000EC0180EA91E0998388838A819B8100977D
:1006D00011F00E94110F1D821C821F821E82CE010A
:1006E0000E94160FDF91CF910895CB01642F0E94D5
:1006F00060110895CB010E9458110895FC012481D6
:100700003581C9010895DC01FC01828193818097C4
:1007100014F080E00895FD01828193810196938316
:10072000828384819581E80FF91F60870196FD011E
:10073000958384832D913C9111978217930714F42C
:1007400081E00895FD011582148281E008951F92D1
:100750000F920FB60F920BB60F9211242F933F9367
:100760004F935F936F937F938F939F93AF93BF93B9
:10077000EF93FF93E0916A02F0916B02608182E255
:1007800092E00E948303FF91EF91BF91AF919F91FF
:100790008F917F916F915F914F913F912F910F902A
:1007A0000BBE0F900FBE0F901F9018951F920F92C7
:1007B0000FB60F920BB60F9211242F933F934F93C6
:1007C0005F936F937F938F939F93AF93BF93EF93B9
:1007D000FF93E0911E02F0911F02608186ED91E08F
:1007E0000E948303FF91EF91BF91AF919F918F91F1
:1007F0007F916F915F914F913F912F910F900BBE21
:100800000F900FBE0F901F901895DC01FC018281A4
:10081000938101979383828386819781E80FF91FE3
:1008200040850196FD01978386832D913C91821727
:10083000930714F017821682842F08951F920F9247
:100840000FB60F920BB60F9211240F931F932F9395
:100850003F934F935F936F937F938F939F93AF9348
:10086000BF93EF93FF9380914C0290914D02181625
:10087000190654F400916A0210916B028AE492E026
:100880000E940504F801808380914C0290914D02F2
:10089000892B31F4E0916802F091690288E9808344
:1008A000FF91EF91BF91AF919F918F917F916F9148
:1008B0005F914F913F912F911F910F910F900BBE20
:1008C0000F900FBE0F901F9018951F920F920FB6AA
:1008D0000F920BB60F9211240F931F932F933F93F8
:1008E0004F935F936F937F938F939F93AF93BF9338
:1008F000EF93FF9380910002909101021816190660
:1009000054F400911E0210911F028EEF91E00E949C
:100910000504F80180838091000290910102892BE7
:1009200031F4E0911C02F0911D0288E98083FF916F
:10093000EF91BF91AF919F918F917F916F915F9157
:100940004F913F912F911F910F910F900BBE0F90E0
:100950000FBE0F901F901895DC01FC0182819381DE
:1009600001979383828386819781E80FF91F4085E1
:100970000196FD01978386832D913C918217930701
:1009800014F017821682842F0895FC0184819581CA
:10099000892B19F42FEF3FEF06C0CF0102960E947A
:1009A000AC04282F30E0C9010895CF93DF93EC0108
:1009B000EE81FF81E80FF91F8085DF91CF910895C7
:1009C000FC0184819581892B19F42FEF3FEF06C03C
:1009D000CF0102960E94D504282F30E0C901089566
:1009E000FC0113821282828193819783868395838F
:1009F0008483089502960E94F0040895FC0180E229
:100A000090E091838083CF010E94F0040895DC017F
:100A1000FC0182819381409714F080E00895FD01EC
:100A20008281938101969383828384819581E80FEB
:100A3000F91F60870196FD01958384832D913C9178
:100A400011978217930714F481E00895FD01158230
:100A5000148281E00895CF93DF93EC018CA59DA5CE
:100A60004097E4F7F894CE018A960E940705C85B88
:100A7000DF4FE881F9818081806280837894DF9103
:100A8000CF910895FC011382128282819381978312
:100A90008683958384830895FC0180E190E09183AF
:100AA0008083CF010E94420508956F927F928F92BA
:100AB0009F92AF92BF92CF92DF92EF92FF920F93ED
:100AC0001F936C015B014A013901FC0188EA91E046
:100AD00081939193CF010E94FE04C6018A960E94E1
:100AE0004C0582E490E0C80ED91EF601A192B192A5
:100AF000819291926192719201931193F182E082BD
:100B00001F910F91FF90EF90DF90CF90BF90AF902B
:100B10009F908F907F906F900895EF92FF920F9328
:100B20001F9384ED91E060E970E049E250E02BE230
:100B300030E00AE210E0FCE2EF2EF12C0E945505B5
:100B400080E292E068E970E049E950E02BE930E0AA
:100B50000AE910E0ECE9EE2EF12C0E9455051F91F8
:100B60000F91FF90EF9008950F931F93DF93CF9312
:100B7000CDB7DEB7E8970FB6F894DEBF0FBECDBF96
:100B80008130910509F035C16F5F7F4F09F05EC17B
:100B90008CE692E06AE14BE12CE102E00E94BF02A8
:100BA00082E792E00E94940084E792E00E94B50000
:100BB00088E792E00E94B5008CE792E00E94B500C1
:100BC0008E010F5F1F4FC80161E071E00E94C80FE6
:100BD00080E892E0B80140E050E00E942103C801A3
:100BE0000E940D038E01075F1F4FC8016AE071E08C
:100BF0000E94C80F8CE892E0B80141E050E00E94EA
:100C00002103C8010E940D038E010F5E1F4FC80112
:100C100061E171E00E94C80F88E992E0B80142E00A
:100C200050E00E942103C8010E940D038E01075E5F
:100C30001F4FC80168E171E00E94C80F84EA92E08A
:100C4000B80143E050E00E942103C8010E940D0357
:100C50008E010F5D1F4FC80162E271E00E94C80F54
:100C600080EB92E0B80144E050E00E942103C8010B
:100C70000E940D038E01075D1F4FC8016BE271E0FA
:100C80000E94C80F8CEB92E0B80145E050E00E9452
:100C90002103C8010E940D038E010F5C1F4FC80184
:100CA00065E371E00E94C80F88EC92E0B80146E06D
:100CB00050E00E942103C8010E940D038091800230
:100CC000909181029093D5028093D40286ED92E0B8
:100CD00062E872E00E94A80F80918A0290918B02D4
:100CE0009093DF028093DE0280918C0290918D02BE
:100CF0009093E1028093E00282EE92E06EE872E06F
:100D00000E94A80F80919602909197029093EB0217
:100D10008093EA0280919802909199029093ED025B
:100D20008093EC028EEE92E06AE972E00E94A80FD6
:100D30008091A2029091A3029093F7028093F60211
:100D40008091A4029091A5029093F9028093F802F9
:100D50008AEF92E066EA72E00E94A80F8091AE02EC
:100D60009091AF0290930303809302038091B002AD
:100D70009091B102909305038093040386E093E081
:100D800062EB72E00E94A80F8091BA029091BB02C0
:100D900090930F0380930E038091BC029091BD024B
:100DA000909311038093100382E193E06EEB72E065
:100DB0000E94A80F8091C6029091C70290931B03D6
:100DC00080931A038091C8029091C90290931D03E9
:100DD00080931C038EE193E06AEC72E00E94A80FFE
:100DE0008091D2029091D30290932703809326039F
:100DF0002DC0892B59F56F5F7F4F41F50CE113E052
:100E0000C80102960E940D030C50104082E0083C7D
:100E10001807B1F78AEC92E00E940D038EEB92E086
:100E20000E940D0382EB92E00E940D0386EA92E09D
:100E30000E940D038AE992E00E940D038EE892E081
:100E40000E940D0382E892E00E940D03E8960FB61F
:100E5000F894DEBF0FBECDBFCF91DF911F910F91F0
:100E6000089580E090E06FEF7FEF0E94B405089551
:100E700081E090E06FEF7FEF0E94B4050895CF937B
:100E8000DF93EC0181E30E944009882311F090E098
:100E90000EC0BE01882777FD8095982F0E94EA0832
:100EA00081E30E94400990E0882309F491E0892FB2
:100EB000DF91CF9108958F929F92AF92BF92CF9280
:100EC000DF92EF92FF920F931F93DF93CF93CDB7F3
:100ED000DEB768970FB6F894DEBF0FBECDBF82E7CE
:100EE00092E00E947F0087E00E94BF094C0186E0EB
:100EF0000E94BF099C01E0915501F091560180E0EC
:100F000094E0BF010E94EC0F61507040C9010E9443
:100F1000EC0F8B016E177F071CF08F010150104002
:100F20008CE692E00E9469028CE692E00E946D02DB
:100F30005801AA0CBB1CA00EB11EAA0CBB1CAA0C0B
:100F4000BB1C84ED92E0A80EB91E6E010894C11C72
:100F5000D11CC601B5010E94D20289E0E82EF12C15
:100F6000EC0EFD1EC70161E471E00E94C80FC601CE
:100F7000B7010E943D0FBC018E010F5E1F4FC801DB
:100F80000E94A80F8CE692E0B8010E94E70EC8010B
:100F90000E940D03C7010E940D03C6010E940D03AC
:100FA000C5010E94CE02BC018CE692E00E94DF0ED9
:100FB0008CE692E060E041E00E945A028CE692E00A
:100FC00063E471E00E941B0E8CE692E0B4010E9483
:100FD000DF0E8CE692E06BE471E00E941B0E88EC61
:100FE00090E00E943F07882321F0C501B4010E94D0
:100FF000DD026EE170E080E090E00E94EA08689611
:101000000FB6F894DEBF0FBECDBFCF91DF911F9119
:101010000F91FF90EF90DF90CF90BF90AF909F9097
:101020008F900895CF93DF93EC0182E30E944009F3
:10103000882311F090E00EC0BE01882777FD8095CF
:10104000982F0E94EA0882E30E94400990E08823DA
:1010500009F491E0892FDF91CF91089580E590E028
:101060000E943F07882319F081E08093570180E5B3
:1010700090E00E941208882311F01092570180918D
:10108000280390912903181619062CF08091580115
:101090009091590101C001979093290380932803EF
:1010A00008950E942E0880915701882311F00E9414
:1010B0005B07089580E060E00E94890981E060E0BC
:1010C0000E94890984E792E063E270E00E94410196
:1010D00088E792E06FE170E00E9441018CE792E0C6
:1010E00062E270E00E94410108951F920F920FB6D4
:1010F0000F9211242F933F938F939F93AF93BF939E
:1011000080912E0390912F03A0913003B091310371
:10111000309132030196A11DB11D232F2D5F2D3774
:1011200020F02D570196A11DB11D2093320380930D
:101130002E0390932F03A0933003B093310380913B
:101140002A0390912B03A0912C03B0912D030196BB
:10115000A11DB11D80932A0390932B03A0932C0310
:10116000B0932D03BF91AF919F918F913F912F919C
:101170000F900FBE0F901F9018956FB7F8942091A5
:101180002A0330912B0340912C0350912D0382B7F9
:1011900090E0A0E0B0E006B600FE09C08F3F9105E8
:1011A000A105B10521F02F5F3F4F4F4F5F4F6FBF3C
:1011B000542F432F322F2227280F391F4A1F5B1F1E
:1011C00082E0220F331F441F551F8A95D1F7B901C2
:1011D000CA010895EF92FF920F931F93CF93DF936D
:1011E0007B018C010E94BD08EB010EC00E94BD086E
:1011F0006C1B7D0B685E7340C8F30894E108F1082E
:1012000001091109C851DC4FE114F1040105110570
:1012100069F7DF91CF911F910F91FF90EF900895A3
:10122000E82FE695E695E695A82FB0E0613099F4B1
:101230002FB7F894F0E0EE0FFF1FE859FE4F019032
:10124000F081E02D9081A770B070AE54BE4F8C91AC
:10125000982B908313C02FB7F894F0E0EE0FFF1F88
:10126000E859FE4F0190F081E02D9081A770B07099
:10127000AE54BE4F8C918095892380832FBF0895F3
:10128000A82FE82FE695E695E695F0E0EE0FFF1F14
:10129000EA58FE4F0190F081E02DE081B0E0A770A8
:1012A000B070AE54BE4F8C91E82309F0E1E08E2F70
:1012B0000895E82FE695E695E695A82FB0E0613011
:1012C00099F42FB7F894F0E0EE0FFF1FE65AFE4FA7
:1012D0000190F081E02D9081A770B070AE54BE4FA8
:1012E0008C91982B908313C02FB7F894F0E0EE0FF9
:1012F000FF1FE65AFE4F0190F081E02D9081A7700C
:10130000B070AE54BE4F8C918095892380832FBFDF
:101310000895E82FF0E0613051F4EE0FFF1FE85917
:10132000FE4F0190F081E02D8FEF80830895EE0F46
:10133000FF1FE859FE4F0190F081E02D10820895C3
:10134000E82FF0E0EE0FFF1FEA58FE4F0190F0810A
:10135000E02D80810895E82FF0E0EE0FFF1FE65AA0
:10136000FE4F0190F081E02D60830895109261009E
:101370001092620080E487B987EE86B908951F93C2
:10138000182F80918401813021F40E94B6091092B7
:10139000840180918501181721F4349A349BFECF83
:1013A0000DC01093850187B11770807E812B87B99E
:1013B000349A349BFECF349A349BFECF24B135B19E
:1013C000C9011F91089593B7987F982B93BF0895F3
:1013D0009EB5987F982B9EBD089583E00E94E809F2
:1013E0001DBC1CBC87B7846087BF089595B5987FE6
:1013F000982B95BD089582E00E94F60914BC87B72A
:10140000806487BF0895EAE8F0E09081987F982B88
:101410009083089583E00E94030A1092890010923D
:101420008800EDE7F0E0808184608083089580315A
:1014300040F4E82FF0E0EE0FFF1FEC5CFC4F7183EF
:1014400060830895893031F48FB582608FBD8FB588
:101450008E7F0AC08A3019F48FB5826002C08FB5C2
:101460008D7F8FBD8FB581608FBD1BBC1ABC19BC31
:1014700018BC109279001092780008958FB580689A
:101480008FBD8FB58F7B8FBD08958FB580628FBD67
:101490008FB58F7E8FBD08958FB588608FBD8FB556
:1014A0008B7F8FBD08959BBD8ABD089599BD88BD72
:1014B000089590937900809378000895893049F4D5
:1014C00080918B00826080938B0080918B008E7F57
:1014D0000EC08A3021F480918B00826003C080911D
:1014E0008B008D7F80938B0080918B008160809337
:1014F0008B00109287001092860010928500109247
:10150000840010928300109282000895EBE8F0E0CE
:1015100080818068808380818F7B80830895EBE861
:10152000F0E080818062808380818F7E8083089557
:10153000EBE8F0E080818860808380818B7F80830E
:101540000895853019F40E943E0A0895843019F4F4
:101550000E94450A0895833019F40E944C0A0895A8
:10156000823019F40E94860A0895813019F40E948D
:101570008F0A0895882311F40E94980A0895909381
:10158000870080938600089590938500809384005F
:10159000089590938300809382000895EF92FF92C4
:1015A0001F93CF93DF93182F7B018D31B0F08F31D4
:1015B00011F413E014C08E3111F414E010C08D3119
:1015C00009F49BC0853211F410E03DC0843211F45F
:1015D00011E039C0833219F48EC08330A0F18091BC
:1015E000330386FD0BC00E94ED0978948AE00E94C7
:1015F000220A809133038064809333038091330304
:10160000C12FD0E090E0012E02C0959587950A94F5
:10161000E2F780FD4CC087B3FE01E654FE4F908197
:10162000892B87BB812F0E94A10A2091330381E07F
:1016300090E0012E02C0880F991F0A94E2F7282B30
:101640002093330334C08091330387FD0BC00E9485
:101650000A0A78948AE00E945E0A809133038068C7
:101660008093330380913303C12FD0E090E0012EAB
:1016700002C0959587950A94E2F780FD24C082B157
:10168000FE01E654FE4F9081892B82B9812F0E9482
:10169000A10A2091330381E090E0012E02C0880F5F
:1016A000991F0A94E2F7282B209333030CC01530BE
:1016B00021F4C7010E94530A22C0143021F4C7014B
:1016C0000E94560A1CC0133021F4C7010E94590A17
:1016D00016C0123021F4C7010E94BF0A10C0113099
:1016E00021F4C7010E94C40A0AC0112341F4C701B2
:1016F0000E94C90A04C012E0A6CF15E070CFDF91A6
:10170000CF911F91FF90EF9008951F920F920FB607
:101710000F920BB60F9211242F933F934F935F9329
:101720006F937F938F939F93AF93BF93EF93FF93A9
:1017300080913A0390913B03892B29F0E0913A0381
:10174000F0913B030995FF91EF91BF91AF919F916C
:101750008F917F916F915F914F913F912F910F905A
:101760000BBE0F900FBE0F901F9018951F920F92F7
:101770000FB60F920BB60F9211242F933F934F93F6
:101780005F936F937F938F939F93AF93BF93EF93E9
:10179000FF938091440390914503892B29F0E091B8
:1017A0004403F09145030995FF91EF91BF91AF91EB
:1017B0009F918F917F916F915F914F913F912F9169
:1017C0000F900BBE0F900FBE0F901F9018951F9299
:1017D0000F920FB60F920BB60F9211242F933F93D7
:1017E0004F935F936F937F938F939F93AF93BF9329
:1017F000EF93FF9380914A0390914B03892B29F03B
:10180000E0914A03F0914B030995FF91EF91BF914D
:10181000AF919F918F917F916F915F914F913F9188
:101820002F910F900BBE0F900FBE0F901F90189529
:101830001F920F920FB60F920BB60F9211242F9397
:101840003F934F935F936F937F938F939F93AF9348
:10185000BF93EF93FF938091360390913703892BC9
:1018600029F0E0913603F09137030995FF91EF914C
:10187000BF91AF919F918F917F916F915F914F91A8
:101880003F912F910F900BBE0F900FBE0F901F90A6
:1018900018951F920F920FB60F920BB60F9211244C
:1018A0002F933F934F935F936F937F938F939F9368
:1018B000AF93BF93EF93FF9380913C0390913D03CF
:1018C000892B29F0E0913C03F0913D030995FF91AC
:1018D000EF91BF91AF919F918F917F916F915F91A8
:1018E0004F913F912F910F900BBE0F900FBE0F9015
:1018F0001F9018951F920F920FB60F920BB60F9272
:1019000011242F933F934F935F936F937F938F9304
:101910009F93AF93BF93EF93FF9380913E0390917A
:101920003F03892B29F0E0913E03F0913F03099595
:10193000FF91EF91BF91AF919F918F917F916F91A7
:101940005F914F913F912F910F900BBE0F900FBE63
:101950000F901F9018951F920F920FB60F920BB613
:101960000F9211242F933F934F935F936F937F9325
:101970008F939F93AF93BF93EF93FF938091400317
:1019800090914103892B29F0E0914003F0914103AC
:101990000995FF91EF91BF91AF919F918F917F91A9
:1019A0006F915F914F913F912F910F900BBE0F90D0
:1019B0000FBE0F901F9018951F920F920FB60F92A7
:1019C0000BB60F9211242F933F934F935F936F9316
:1019D0007F938F939F93AF93BF93EF93FF938091E8
:1019E000420390914303892B29F0E0914203F09147
:1019F00043030995FF91EF91BF91AF919F918F9113
:101A00007F916F915F914F913F912F910F900BBEFE
:101A10000F900FBE0F901F9018951F920F920FB648
:101A20000F920BB60F9211242F933F934F935F9316
:101A30006F937F938F939F93AF93BF93EF93FF9396
:101A40008091460390914703892B29F0E09146034A
:101A5000F09147030995FF91EF91BF91AF919F914D
:101A60008F917F916F915F914F913F912F910F9047
:101A70000BBE0F900FBE0F901F9018951F920F92E4
:101A80000FB60F920BB60F9211242F933F934F93E3
:101A90005F936F937F938F939F93AF93BF93EF93D6
:101AA000FF9380914C0390914D03892B29F0E09195
:101AB0004C03F0914D030995FF91EF91BF91AF91C8
:101AC0009F918F917F916F915F914F913F912F9156
:101AD0000F900BBE0F900FBE0F901F9018951F9286
:101AE0000F920FB60F920BB60F9211242F933F93C4
:101AF0004F935F936F937F938F939F93AF93BF9316
:101B0000EF93FF9380914E0390914F03892B29F01F
:101B1000E0914E03F0914F030995FF91EF91BF9132
:101B2000AF919F918F917F916F915F914F913F9175
:101B30002F910F900BBE0F900FBE0F901F90189516
:101B40001F920F920FB60F920BB60F9211242F9384
:101B50003F934F935F936F937F938F939F93AF9335
:101B6000BF93EF93FF938091500390915103892B82
:101B700029F0E0915003F09151030995FF91EF9105
:101B8000BF91AF919F918F917F916F915F914F9195
:101B90003F912F910F900BBE0F900FBE0F901F9093
:101BA00018951F920F920FB60F920BB60F92112439
:101BB0002F933F934F935F936F937F938F939F9355
:101BC000AF93BF93EF93FF93809152039091530390
:101BD000892B29F0E0915203F09153030995FF916D
:101BE000EF91BF91AF919F918F917F916F915F9195
:101BF0004F913F912F910F900BBE0F900FBE0F9002
:101C00001F90189583E061E00E94890984E061E0FB
:101C10000E94890978940E945A080E945108FDCFB9
:101C2000DC01ED91FC910190F081E02D0995089582
:101C30000E94100E08950F931F93CF93DF938C0192
:101C4000EB0104C02196C8010E94180E688166232A
:101C5000C9F7DF91CF911F910F9108952F923F9275
:101C60004F925F926F927F928F929F92AF92BF92AC
:101C7000CF92DF92EF92FF920F931F93DF93CF9358
:101C8000CDB7DEB7A0970FB6F894DEBF0FBECDBFBD
:101C90001C016A017B01411551056105710521F4A3
:101CA00060E30E94180E4FC0882499245401422EEC
:101CB00055246624772401E010E00C0F1D1F080D49
:101CC000191DC701B601A30192010E94FF0FF8017F
:101CD00060830894811C911CA11CB11CC701B60132
:101CE000A30192010E94FF0FC901DA016C017D017D
:101CF000C114D104E104F104F1F681E0E82EF12CE5
:101D0000EC0EFD1EE80CF91C3E010894611C711CD0
:101D1000D501C4010197A109B1096C01C818D908FE
:101D20000FC0F601EE0DFF1D60816A3010F4605D9A
:101D300001C0695CC1010E94180E0894E108F10815
:101D40006E147F0471F7A0960FB6F894DEBF0FBE35
:101D5000CDBFCF91DF911F910F91FF90EF90DF905A
:101D6000CF90BF90AF909F908F907F906F905F903B
:101D70004F903F902F900895EF92FF920F931F93F3
:101D8000CF93DF93EC017A018B0177FF0BC06DE2FB
:101D90000E94180E10950095F094E094E11CF11C3F
:101DA000011D111DCE01B801A7012AE00E942E0ECF
:101DB000DF91CF911F910F91FF90EF900895AB01AC
:101DC000662757FD6095762F0E94BC0E0895CF922E
:101DD000DF92EF92FF920F931F93CF93DF936C01EB
:101DE0007B01C0E0D0E00EC0D601ED91FC910081F6
:101DF0001181C701BE010E941E0F682FC601F801A4
:101E000009952196F70186819781C817D90760F354
:101E1000DF91CF911F910F91FF90EF90DF90CF90C6
:101E20000895009711F00E94E7100895009711F0AF
:101E30000E94E71008950E943B100895CF93DF930E
:101E4000EC01EA81FB81E60FF71F8081DF91CF91E2
:101E50000895CF93DF93EC01CB017D836C830196D2
:101E60000E941B0F9B838A83009721F41D821C8292
:101E70001F821E82DF91CF910895EF92FF920F9300
:101E80001F93CF93DF93EC017B01FB016681778188
:101E90008E819F81680F791F7F836E838C819D81E6
:101EA0008617970790F40A811B81CE010E94290FA3
:101EB0008A819B81009719F0B8010E944811011591
:101EC000110519F0C8010E94110F8A819B810097AA
:101ED00029F0F701628173810E943D11CE01DF91EB
:101EE000CF911F910F91FF90EF9008950F931F9343
:101EF000CF93DF93EC018B018617970719F1FB0154
:101F0000268137818E819F818217930760F48A81B1
:101F10009B81009711F00E94110FF8016681778173
:101F2000CE010E94290F2A813B812115310551F0F4
:101F3000F801868197819F838E8362817381C901B5
:101F40000E944811CE01DF91CF911F910F9108950A
:101F50000F931F93CF93DF938C01EB0180EA91E005
:101F6000F801918380836E817F8177836683C801C6
:101F70000E94290FF80182819381009721F06A81E4
:101F80007B810E944811DF91CF911F910F9108959D
:101F90000F931F93CF93DF93EC018B0180EA91E0C5
:101FA000998388836115710511F40DE411E0C8016E
:101FB0000E944F11BC019F838E83CE010E94290F86
:101FC0008A819B81009719F0B8010E944811DF9126
:101FD000CF911F910F91089597FB092E07260AD0E4
:101FE00077FD04D02ED006D000201AF470956195AC
:101FF0007F4F0895F6F7909581959F4F0895A1E240
:102000001A2EAA1BBB1BFD010DC0AA1FBB1FEE1F72
:10201000FF1FA217B307E407F50720F0A21BB30BBD
:10202000E40BF50B661F771F881F991F1A9469F739
:1020300060957095809590959B01AC01BD01CF0195
:102040000895AA1BBB1B51E107C0AA1FBB1FA617FF
:10205000B70710F0A61BB70B881F991F5A95A9F751
:1020600080959095BC01CD010895EE0FFF1F05905E
:10207000F491E02D0994CF93DF93BC018230910558
:1020800010F462E070E0A0915603B0915703ED01A7
:10209000E0E0F0E040E050E021C0888199818617BF
:1020A000970769F48A819B81309719F09383828323
:1020B00004C09093570380935603FE0133C0681702
:1020C000790738F44115510519F08417950708F47C
:1020D000AC01FE018A819B819C01E9012097E9F610
:1020E00041155105A1F1CA01861B970B049708F40D
:1020F000BA01E0E0F0E029C08D919C91119784171E
:102100009507F1F46417750779F4ED018A819B81D5
:10211000309719F09383828304C090935703809380
:102120005603FD0132964FC0CA01861B970BFD0175
:10213000E80FF91F6193719302978D939C9343C0AD
:10214000FD01828193819C01D9011097A9F68091AC
:10215000540390915503892B41F480915001909143
:102160005101909355038093540340915201509133
:1021700053014115510541F44DB75EB780914E01B1
:1021800090914F01481B590B2091540330915503F6
:1021900024173507B0F4CA01821B930B86179707E3
:1021A00080F0AB014E5F5F4F8417950750F0420FF0
:1021B000531F5093550340935403F9016193719356
:1021C00002C0E0E0F0E0CF01DF91CF910895CF931E
:1021D000DF93009709F44EC0EC0122971B821A820C
:1021E000A0915603B0915703109701F140E050E0E1
:1021F000AC17BD0700F1BB83AA83FE012191319189
:10220000E20FF31FAE17BF0771F48D919C911197E8
:10221000280F391F2E5F3F4F39832883FD018281AC
:1022200093819B838A834115510569F4D0935703A9
:10223000C09356031FC0FD0182819381AD010097B9
:1022400011F0DC01D5CFFA01D383C2832191319102
:10225000E20FF31FCE17DF0769F488819981280FF9
:10226000391F2E5F3F4FFA01318320838A819B8182
:1022700093838283DF91CF910895FB01DC010D9060
:102280000020E9F7119701900D920020E1F70895E1
:10229000FB01DC0101900D920020E1F70895FC01A3
:1022A00001900020E9F7809590958E0F9F1F08956B
:1022B000E199FECF9FBB8EBBE09A99278DB308951D
:1022C000262FE199FECF9FBB8EBB2DBB0FB6F89496
:1022D000E29AE19A0FBE0196089510E0C0E9D0E0BD
:1022E00004C0FE010E9437102296C239D107C9F7F7
:0422F000F894FFCF90
:1022F400004C6173657220544800502D4761696E2B
:1023040000442D4761696E004272757368205665FA
:102314006C00466972652056656C004D6F746F726F
:102324002056656C00536572766F20416E676C654C
:1023340000200053657420746F20003F00002000CB
:1023440058030000FF070001C800320035003B00BD
:102354003800230062006500310034003A00370081
:10236400220061006400300033003900360021008F
:102374002000630001FF1800190026002700050053
:10238400040001000000000000001302000000002F
:102394000D035E03000000002B057E03E004C5046A
:1023A400FA04010204081020408020100880402014
:00000001FF
